:020000040800F2
:1000000000000220AD2D0008FD2D0008FD2D000888
:10001000FD2D0008FD2D0008FD2D0008000000004A
:10002000000000000000000000000000FD2D00089E
:10003000FD2D000800000000FD2D0008DF22000853
:10004000FD2D0008FD2D0008FD2D0008FD2D0008E8
:10005000FD2D0008FD2D0008FD2D0008FD2D0008D8
:10006000FD2D0008FD2D0008FD2D0008FD2D0008C8
:10007000FD2D0008FD2D0008FD2D0008FD2D0008B8
:10008000FD2D0008FD2D0008FD2D0008ED220008C3
:10009000FD2200080D2300081D230008FD2D000887
:1000A000FD2D0008FD2D0008FD2D0008FD2D000888
:1000B000FD2D0008FD2D0008FD2D0008FD2D000878
:1000C000FD2D0008FD2D0008FD2D0008FD2D000868
:1000D000FD2D0008FD2D0008FD2D0008FD2D000858
:1000E000FD2D0008FD2D0008FD2D0008FD2D000848
:1000F000FD2D0008FD2D0008FD2D0008FD2D000838
:10010000FD2D0008FD2D0008FD2D0008FD2D000827
:10011000FD2D0008FD2D00082D230008FD2D0008F1
:10012000FD2D0008FD2D0008FD2D0008FD2D000807
:10013000FD2D0008FD2D0008FD2D0008FD2D0008F7
:10014000FD2D0008FD2D0008FD2D0008FD2D0008E7
:10015000FD2D0008FD2D0008FD2D0008FD2D0008D7
:10016000FD2D0008FD2D0008FD2D0008FD2D0008C7
:10017000FD2D0008FD2D0008FD2D000800000000E9
:08018000FD2D0008FD2D000813
:1001900010B5054C237833B9044B13B10448AFF3C1
:1001A00000800123237010BD7000002000000000BB
:1001B000B837000808B5034B1BB103490348AFF338
:1001C000008008BD0000000074000020B83700085F
:1001D00053B94AB9002908BF00281CBF4FF0FF31AE
:1001E0004FF0FF3000F072B9ADF1080C6DE904CEAC
:1001F00000F006F8DDF804E0DDE9022304B0704702
:100200002DE9F047089E04468846002B4BD18A42D0
:10021000154667D9B2FA82F24AB1C2F1200701FA53
:1002200002F320FA07F7954047EA030894404FEAA3
:10023000154E230CB8FBFEF71FFA85FC0EFB178842
:1002400043EA084307FB0CF1994209D9EB1807F17F
:10025000FF3080F01B81994240F21881023F2B440D
:100260005B1AA4B2B3FBFEF00EFB103344EA034466
:1002700000FB0CFCA44509D92C1900F1FF3380F0D8
:100280000781A44540F2048102382C4440EA07402B
:10029000A4EB0C0400271EB1D4400023C6E90043A0
:1002A0003946BDE8F0878B4209D9002E00F0EB807B
:1002B0000027C6E9000138463946BDE8F087B3FAA1
:1002C00083F7002F47D18B4202D3824200F2FA809B
:1002D000841A61EB030301209846002EE0D0C6E9A2
:1002E0000048DDE702B9FFDEB2FA82F2002A40F0F0
:1002F0008F80491B4FEA154E1FFA85F80127B1FB85
:10030000FEFC230C0EFB1C1143EA014308FB0CF11D
:10031000994207D9EB180CF1FF3002D2994200F252
:10032000CD808446591AA3B2B1FBFEF00EFB101427
:1003300043EA044408FB00F8A04507D92C1900F152
:10034000FF3302D2A04500F2B6801846A4EB0804A1
:1003500040EA0C409FE7C7F1200CBB4022FA0CFE9C
:100360004EEA030E01FA07F420FA0CF521FA0CF319
:100370004FEA1E482543B3FBF8F92C0C08FB193350
:100380001FFA8EFA44EA034309FB0AF49C4202FA7C
:1003900007F200FA07F10BD91EEB030309F1FF3056
:1003A00080F087809C4240F28480A9F10209734466
:1003B0001B1BADB2B3FBF8F008FB103345EA034456
:1003C00000FB0AFAA24508D91EEB040400F1FF3332
:1003D0006BD2A24569D90238744440EA0940A0FBB7
:1003E0000289A4EB0A044C45C2464B4654D351D073
:1003F000002E69D0B1EB0A0564EB030404FA0CFC8F
:10040000FD40FC404CEA0505C6E90054002747E7DB
:10041000C2F1200320FA03F7954001FA02F021FA15
:1004200003F34FEA154E3843010CB3FBFEF71FFAF6
:1004300085F80EFB173341EA034107FB08F38B42B3
:1004400004FA02F407D9691807F1FF3C2FD28B4256
:100450002DD9023F2944CB1A81B2B3FBFEF00EFB2B
:10046000103341EA034100FB08F38B4207D96918B6
:1004700000F1FF3C17D28B4215D902382944C91A22
:1004800040EA07473BE73746304609E70746E7E6D5
:100490001846FBE64145ABD2B8EB020A69EB0E0207
:1004A00001381346A4E76046E9E7184695E7674632
:1004B000D1E781467CE702382C4447E7ACF1020CD7
:1004C0002B442FE7384608E73746E9E6704700BF78
:1004D000034613F8012B002AFBD1181A0138704784
:1004E00001F0FF01102A2BDB10F0070F08D010F8E5
:1004F000013B013A8B422DD010F0070F42B3F6D1E9
:10050000F0B441EA012141EA014122F007047FF001
:1005100000070023F0E80256083C85EA010586EA58
:10052000010685FA47F5A3FA87F586FA47F6A5FA94
:1005300087F68EB9EED1F0BC01F0FF0102F00702A0
:1005400032B110F8013B013A83EA010313B1F8D14B
:100550000020704701387047002D06BF354603382C
:10056000073815F0010F07D1013015F4807F02BF65
:10057000013015F4C03F0130F0BC0138704700BFB6
:1005800010B504460E4B18784FF47A73B3FBF0F3B2
:100590000C4A1068B0FBF3F000F06CFC68B90F2C4B
:1005A00001D901200AE0002221464FF0FF3000F07F
:1005B0001FFC034B5C60002000E0012010BD00BF69
:1005C000000000200800002008B50B4B1A6842F418
:1005D00000721A601A6842F480621A601A6842F463
:1005E00080721A60032000F0F1FB0020FFF7C8FFC3
:1005F00002F0B4FA002008BD003C0240034A116832
:10060000034B1B780B441360704700BF4C02002063
:1006100000000020014B1868704700BF4C0200200A
:1006200038B50446FFF7F6FF0546B4F1FF3F02D0A8
:10063000044B1B781C44FFF7EDFF401BA042FAD38C
:1006400038BD00BF00000020002800F0A18038B5B0
:10065000044690F82030D3B12268136823F00203D7
:100660001360FFF7D7FF054623685A6812F0020FA0
:1006700010D0FFF7CFFF401B0A28F5D9636A43F477
:1006800000336362052384F82030012038BD02F076
:1006900083FAE1E71A6842F001021A60FFF7BAFF35
:1006A000054623685A6812F0010F0DD1FFF7B2FF1B
:1006B000401B0A28F5D9636A43F4003363620523BB
:1006C00084F820300120E1E7227E012A3DD01A681B
:1006D00022F080021A60637E012B3BD022681368EF
:1006E00023F040031360A37E012B39D022681368E6
:1006F00023F020031360E37E012B37D022681368B8
:1007000043F010031360237F012B35D02268136858
:1007100023F008031360637F012B33D02268136832
:1007200023F004031360A368E268134322691343B0
:10073000626913436268013A21681343CB61002068
:100740006062012384F82030A0E71A6842F080023A
:100750001A60C0E72268136843F040031360C2E7E1
:100760002268136843F020031360C4E7226813680B
:1007700023F010031360C6E72268136843F00803F0
:100780001360C8E72268136843F004031360CAE7E4
:100790000120704790F82030013BDBB2012B05D9D6
:1007A000436A43F4802343620120704770B4434B93
:1007B000D3F8002242F00102C3F80022D3F800224D
:1007C00022F47C52C3F80022D3F80022486A42EA9D
:1007D0000022C3F800224A6902F01F02012000FA39
:1007E00002F2D3F81C42D0430440C3F81C42CB6948
:1007F000B3B9324BD3F80C420440C3F80C42CE6874
:100800008D884C6945EA0645483443F834508E6873
:100810000C884D6944EA0644483503EBC5035C6027
:10082000CB69012B1DD08B69002B32D1234CD4F81E
:1008300004320340C4F804320B698BBB1F4BD3F85E
:1008400014422040C3F814020B6A012B2FD01B4A1C
:10085000D2F8003223F00103C2F80032002070BC4D
:100860007047164BD3F80C421443C3F80C420E6881
:100870008D884C6945EA0645483443F834508E6803
:100880008C894D6944EA0644483503EBC5035C6036
:10089000C9E70A4CD4F804321343C4F80432CBE756
:1008A0000648D0F814321343C0F81432CCE7034999
:1008B000D1F81C321A43C1F81C22C8E7006400407A
:1008C00038B590F82030DBB2012B05D0436A43F4F1
:1008D00000234362012038BD0446022380F8203003
:1008E0000268136823F001031360FFF793FE0546C7
:1008F00023685B6813F0010F0DD0FFF78BFE401BE0
:100900000A28F5D9636A43F400336362052384F847
:1009100020300120DFE700206062DCE770B490F84F
:1009200020400568AD68013CE4B2012C06D9436A59
:1009300043F480234362012070BC704715F0E05FF0
:100940005BD0C5F30165022D3ED80124AC401C608C
:100950008B68002B3ED10E68CB68046843EA46568C
:1009600005F118031B01E65003680C6905F1180630
:1009700003EB06135C600B7D012B36D0D1799379A4
:100980001B0443EA0163517943EA012314790168A6
:1009900023432C012144C1F88C31D17893781B0476
:1009A00043EA0163517843EA0123117802680B435B
:1009B0002244C2F88831026818352D01535943F09A
:1009C000010353510020B7E7436A43F40003436235
:1009D0000120B1E74C6843EAC403CC6806682343AE
:1009E00005F1180424013351BEE7036803EB061335
:1009F000596841F480715960C0E7436A43F40013B9
:100A00004362012098E730B490F82040013CE4B202
:100A1000012C06D9436A43F480234362012030BC91
:100A2000704700296FD10468E46814F0030F64D0A4
:100A3000056801F11B0424012C5904F0040494609E
:100A4000002C6BD1056801F11B0424012C59640DA5
:100A50001460056801F11B0424012D5905F00205FD
:100A6000D560056825446D6805F00F0515610568BA
:100A700025446D68C5F30725956105682C446468B5
:100A8000240C546104680A011444D4F8B8411C7061
:100A900004681444D4F8B841C4F307245C700468B3
:100AA0001444D4F8B841C4F307449C700468144457
:100AB000D4F8B841240EDC7004681444D4F8BC4166
:100AC0001C7104681444D4F8BC41C4F307245C715D
:100AD00004681444D4F8BC41C4F307449C7104680E
:100AE0002244D2F8BC21120EDA71F9B90268D36837
:100AF00043F02003D360002091E7436A43F40013DE
:100B0000436201208BE70468246914F0030F8FD13E
:100B1000436A43F400134362012080E7056801F152
:100B20001B0424012C59E408546092E702681369FD
:100B300043F020031361002071E790F82030013B5F
:100B4000DBB2012B05D9436A43F4802343620120C1
:100B5000704702685369194351610020704770471C
:100B600070477047704770477047704770477047CD
:100B7000704770472DE9F84F054603685C695F6868
:100B80009E68D3F80C90D3F81080D3F818A014F016
:100B9000010F5AD016F0010F17D001229A6016F0FB
:100BA000020F08D116F0040F30D116F0080F07D04D
:100BB0004FF4805B0BE0FFF7D2FF4FF0000B06E035
:100BC000FFF7D0FF4FF0000B01E04FF0000B16F4E1
:100BD000807F0BD02B684FF480729A6016F4007FF0
:100BE00017D116F4806F18D04BF4005B16F4803FD9
:100BF0002DD02B684FF480329A6016F4003F16D146
:100C000016F4802F17D04BF4004B20E04FF4006B0C
:100C1000DDE72846FFF7A4FFE8E716F4006F02D0EF
:100C20004BF4804BE2E72846FFF79DFFDEE72846BE
:100C3000FFF797FF0BE016F4002F02D04BF4803B38
:100C400005E02846FFF790FF01E04FF0000B14F09D
:100C5000080F07D019F0100F04D04BF4007B2B685D
:100C60001022DA6014F0040F02D019F0080F60D1DE
:100C700014F0020F04D02B68DB6813F0030F5FD170
:100C800014F0400F07D018F0100F04D04BF4806B15
:100C90002B6810221A6114F0200F02D018F0080FF0
:100CA00052D114F0100F04D02B681B6913F0030FFE
:100CB00051D114F4003F02D017F0100F4FD114F4AB
:100CC000803F02D017F0080F50D114F4004F67D0C6
:100CD00017F0040F61D014F4807F04D01AF0010FD4
:100CE00001D04BF0010B14F4007F04D01AF0020F76
:100CF00001D04BF0020B14F4806F04D01AF0040FF3
:100D000001D04BF0040B14F4006F46D01AF0700AB7
:100D100043D0BAF1300F48D02FD9BAF1500F47D095
:100D2000BAF1600F47D0BAF1400F31D14BF0400B10
:100D30002EE02B680822DA602846FFF716FF97E7B7
:100D4000284601F023FD9BE72B6808221A612846FC
:100D5000FFF70DFFA5E72846FFF708FFA9E72B6877
:100D600010225A602846FFF703FFA8E72B680822E5
:100D70005A602846FFF7FDFEA7E7BAF1100F05D02D
:100D8000BAF1200F04D14BF0100B01E04BF0080B2F
:100D90002A68936923F0700393612B6804225A60D8
:100DA000BBF1000F0AD1BDE8F88F4BF0200BEFE745
:100DB0004BF0800BECE74BF4807BE9E76B6A43EA8E
:100DC0000B036B62284601F0C7FBECE7074AD368C8
:100DD00023F4E0631B041B0C000200F4E0601843E2
:100DE00040F0BF6040F40030D060704700ED00E09C
:100DF00030B4174BDB68C3F30223C3F10704042CA0
:100E000028BF04241D1D062D18D9033B4FF0FF35C4
:100E100005FA04F421EA0401994005FA03F322EAF1
:100E20000303194300280BDB0901C9B200F160403C
:100E300000F5614080F8001330BC70470023E5E7FF
:100E400000F00F000901C9B2024B1954F4E700BFCA
:100E500000ED00E014ED00E0002807DB00F01F02C9
:100E6000400901239340024A42F82030704700BFF6
:100E700000E100E00138B0F1807F0AD2064B5860F3
:100E8000064AF02182F823100020986007221A6099
:100E900070470120704700BF10E000E000ED00E067
:100EA000042805D0054A136823F004031360704733
:100EB000024A136843F004031360704710E000E037
:100EC000704708B5FFF7FCFF08BD000000230F2B9B
:100ED00000F2D780F0B583B039E0072200E00022AD
:100EE000AA403A430234674D45F82420664A146804
:100EF000F24302EA04054F6817F4803F01D046EA46
:100F00000405614C2560646802EA04054F6817F423
:100F1000003F01D046EA04055B4C6560A46802EA24
:100F200004054F6817F4801F01D046EA0405564CAB
:100F3000A560E46822404D6815F4001F01D046EA20
:100F40000402514CE26001330F2B00F29880012221
:100F50009A400C6804EA0206B242F4D14C68651E5D
:100F6000012D03D9112C01D0122C12D185685F00FC
:100F70000324BC4025EA0405CC68BC402C438460B3
:100F8000456825EA02054C68C4F300129A402A43DA
:100F90004260C4685F000322BA40D24314408D68A7
:100FA000BD402543C5604C68022C01D0122C13D1E2
:100FB000DD08083550F825E003F007044FEA840CFB
:100FC0000F2404FA0CF42EEA040E0C6904FA0CF453
:100FD00044EA0E0440F82540046822404C6804F0BE
:100FE0000304BC40224302604A6812F0805FAAD02A
:100FF00000220192254A546C44F480445464526C9B
:1010000002F480420192019A9C08A51C1D4A52F8E4
:10101000257003F0030295000F22AA4027EA020779
:101020001B4A90423FF45BAF02F5806290421AD0B7
:1010300002F58062904218D002F58062904216D08C
:1010400002F58062904214D002F58062904212D084
:1010500002F58062904210D002F5806290423FF427
:101060003CAF08223CE701223AE7022238E703229C
:1010700036E7042234E7052232E7062230E703B0E0
:10108000F0BD704700380140003C0140003802408C
:10109000000002400369194201D10020704701207D
:1010A000704712B9090481617047816170474369D3
:1010B00031EA030301D081617047090481617047FF
:1010C000024A536818435060704700BF00700040E8
:1010D000054A136843F002031360044A136943F09E
:1010E0000403136130BF70470070004000ED00E062
:1010F000002800F0E48170B582B00446036813F064
:10110000010F3BD0A74B9B6803F00C03042B2CD0A2
:10111000A44B9B6803F00C03082B21D06368B3F544
:10112000803F4FD0B3F5A02F52D09E4B1A6822F4C7
:1011300080321A601A6822F480221A606368002BD9
:1011400050D0FFF767FA0546964B1B6813F4003F33
:1011500014D1FFF75FFA401B6428F5D90320B3E1EF
:10116000904B5B6813F4800FD8D08E4B1B6813F440
:10117000003F03D06368002B00F0A381236813F0C5
:10118000020F55D0874B9B6813F00C0F3ED0854B58
:101190009B6803F00C03082B33D0E368002B68D066
:1011A000814B01221A60FFF735FA05467D4B1B681B
:1011B00013F0020F54D1FFF72DFA401B0228F5D986
:1011C000032081E1774A136843F480331360B5E765
:1011D000744B1A6842F480221A601A6842F4803212
:1011E0001A60ABE7FFF716FA05466E4B1B6813F45F
:1011F000003FC3D0FFF70EFA401B6428F5D9032047
:1012000062E1684B5B6813F4800FC6D1654B1B68C5
:1012100013F0020F04D0E368012B01D0012053E149
:10122000604A136823F0F803216943EAC10313609D
:10123000236813F0080F40D0636963B35B4B01224E
:101240001A60FFF7E7F90546564B5B6F13F0020F84
:1012500033D1FFF7DFF9401B0228F5D9032033E132
:10126000504A136823F0F803216943EAC10313606D
:10127000DEE74D4B00221A60FFF7CCF90546494BDB
:101280001B6813F0020FD3D0FFF7C4F9401B0228EC
:10129000F5D9032018E1454B00221A60FFF7BAF98F
:1012A0000546404B5B6F13F0020F06D0FFF7B2F913
:1012B000401B0228F5D9032006E1236813F0040F30
:1012C00079D0384B1B6C13F0805F33D1002301932E
:1012D000344B1A6C42F080521A641B6C03F080533A
:1012E0000193019B0125324B1B6813F4807F23D0AF
:1012F000A368012B34D0052B38D02A4B1A6F22F06B
:1013000001021A671A6F22F004021A67A368002B01
:1013100036D0FFF77FF90646224B1B6F13F0020F02
:1013200048D1FFF777F9801B41F288339842F3D90F
:101330000320C9E00025D6E71D4A136843F48073F3
:101340001360FFF767F90646194B1B6813F4807F9B
:10135000CED1FFF75FF9801B0228F5D90320B3E057
:10136000104A136F43F001031367CFE70D4B1A6F59
:1013700042F004021A671A6F42F001021A67C5E7C9
:10138000FFF748F90646074B1B6F13F0020F11D009
:10139000FFF740F9801B41F288339842F3D90320CC
:1013A00092E000BF0038024000004742800E4742F2
:1013B00000700040EDB9A369002B00F08480454A1D
:1013C000926802F00C02082A51D0022B17D0424B2F
:1013D00000221A60FFF71EF904463E4B1B6813F00B
:1013E000007F42D0FFF716F9001B0228F5D9032031
:1013F0006AE0384A136C23F080531364DBE7364B02
:1014000000221A60FFF706F90546324B1B6813F0FD
:10141000007F06D0FFF7FEF8401B0228F5D9032015
:1014200052E0E369226A1343626A43EA8213A26AC2
:101430005208013A43EA0243E26A43EA0263254A58
:101440005360254B01221A60FFF7E4F80446214B54
:101450001B6813F0007F06D1FFF7DCF8001B0228A1
:10146000F5D9032030E000202EE000202CE0012BF5
:101470002CD0184B9B6803F48001E269914201D0A3
:10148000012021E003F03F02216A8A4201D00120BD
:101490001AE0616A47F6C0721A408A4201D0012000
:1014A00012E003F44032A16A8A4201D001200BE02D
:1014B00003F07063E26A93420AD0012004E0012045
:1014C0007047012000E0002002B070BD0120FBE762
:1014D0000020F9E70038024060004742324B9B6829
:1014E00003F00C03042B5CD0082B01D02F4870476D
:1014F0002DE9F04B2C4B5A6802F03F025B6813F465
:10150000800F2BD0284B5B68C3F388131E4600273F
:101510005C010025E41A65EB0705A90141EA946125
:10152000A001001B61EB0501CB0043EA5073C4002E
:10153000A01943EB07014B0243EAD0534402204673
:1015400019460023FEF744FE174B5B68C3F30143C3
:1015500001335B00B0FBF3F0BDE8F08B124B5B682E
:10156000C3F388131E4600275C010025E41A65EBCF
:101570000705A90141EA9461A001001B61EB050187
:10158000CB0043EA5073C400A01943EB07018B0260
:1015900043EA90538402204619460023FEF718FEC2
:1015A000D2E70348704700BF003802400024F4002F
:1015B00000127A00002800F09E8070B50446504B5F
:1015C0001B6803F00F038B4209D2CBB24C4A137055
:1015D000136803F00F038B4201D0012070BD236814
:1015E00013F0020F17D013F0040F04D0454A93688C
:1015F00043F4E0539360236813F0080F04D0414A8A
:10160000936843F4604393603E4A936823F0F00389
:10161000A068034393600D46236813F0010F32D096
:101620006368012B21D09A1E012A25D9354A1268F8
:1016300012F0020F61D033498A6822F0030213438B
:101640008B60FEF7E7FF06462E4B9B6803F00C030A
:101650006268B3EB820F16D0FEF7DCFF801B41F20D
:1016600088339842F0D90320B8E7264A126812F46A
:10167000003FE0D10120B1E7224A126812F0007F5A
:10168000D9D10120AAE71E4B1B6803F00F03AB4220
:1016900009D9EAB21A4B1A701B6803F00F03AB4268
:1016A00001D001209AE7236813F0040F06D0154AF1
:1016B000936823F4E053E1680B439360236813F0CD
:1016C000080F07D00F4A936823F46043216943EA67
:1016D000C1039360FFF702FF0A4B9B68C3F3031338
:1016E000094AD35CD840094B1860094B1868FEF7CB
:1016F00047FF002072E70120704701206EE700BF1E
:10170000003C024000380240F43700080800002086
:1017100004000020014B1868704700BF080000203B
:1017200008B5FFF7F7FF044B9B68C3F38223034A16
:10173000D35CD84008BD00BF003802400438000820
:1017400008B5FFF7E7FF044B9B68C3F34233034A36
:10175000D35CD84008BD00BF003802400438000800
:1017600030B583B00446036813F0050F06D1236833
:1017700013F0020F2ED1002003B030BD494B0022E0
:101780001A60FEF747FF0546474B1B6813F0006FD2
:1017900006D0FEF73FFF401B0228F5D90320EBE7F8
:1017A0006268A3681B0743EA82133F4AC2F8843089
:1017B0003C4B01221A60FEF72DFF05463A4B1B6891
:1017C00013F0006FD3D1FEF725FF401B0228F5D997
:1017D0000320D1E700230193334B1A6C42F080526F
:1017E0001A641B6C03F080530193019B2F4A13680A
:1017F00043F480731360FEF70DFF05462B4B1B6807
:1018000013F4807F06D1FEF705FF401B0228F5D9AF
:101810000320B1E7244B1B6F13F4407312D0E2682E
:1018200002F440729A420DD01F4B1A6F22F440729C
:101830001F4901200860002008601A671B6F13F021
:10184000010F13D1E36803F44072B2F5407F1ED05C
:10185000154A936823F4F813936013490B6FE268F9
:10186000C2F30B0213430B67002085E7FEF7D2FE9D
:1018700005460D4B1B6F13F0020FE3D1FEF7CAFEB6
:10188000401B41F288339842F3D9032074E706499C
:101890008A6822F4F81223F0704323F44073134350
:1018A0008B60DAE768004742003802400070004071
:1018B000400E474238B504460268D36823F0A003BF
:1018C000D360FEF7A7FE05462368DB6813F0200F00
:1018D00007D1FEF79FFE401BB0F57A7FF4D90320B5
:1018E00000E0002038BD38B50368DA6812F0400F18
:1018F00001D0002038BD04464FF0FF32DA60FEF719
:1019000089FE05462368DB6813F0400F07D1FEF718
:1019100081FE401BB0F57A7FF4D90320EAE700206E
:10192000E8E738B500285CD00446437F002B40D060
:10193000022363772368CA225A62236853225A62B9
:101940002046FFF7D0FF0546002836D1226893686D
:1019500023F4E00323F04003936021688A686368FE
:10196000206903436069034313438B602368E26883
:101970001A6122681369A16843EA0143136122686E
:10198000D36823F08003D36023689B6813F0200F93
:101990001BD02268136C23F4802313642268136C19
:1019A000A1690B4313642368FF225A620123637702
:1019B00009E0037701F056F9BAE72368FF225A627B
:1019C000042363770125284638BD2046FFF772FFC0
:1019D0000028DED02368FF225A62042363770125A2
:1019E000F1E70125EFE7002302E001330A38C0B236
:1019F0000928FAD81B01DBB218437047F8B5037FFA
:101A0000012B78D00D460446012303770223437748
:101A1000002A46D103689B6813F0400F01D10023D0
:101A2000CB702878FFF7DFFF06046878FFF7DBFF4D
:101A300046EA0026A878FFF7D6FF3043EE7840EA62
:101A400006462368CA225A62236853225A622046F5
:101A5000FFF749FF0746002835D1236806F07F3697
:101A600026F0FE461E602268936823F4802393606C
:101A700021688B68EA682869024313438B602268F7
:101A8000D36823F08003D36023689B6813F0200F92
:101A900023D02368FF225A62012363770023237730
:101AA00019E003689B6813F0400F01D10023CB704D
:101AB0002B786878000240EA0340AB781843EE7850
:101AC00040EA0646BDE72368FF225A620423637793
:101AD0000023237701273846F8BD2046FFF7EAFEAA
:101AE0000028D6D02368FF225A620423637700239C
:101AF00023770127EFE70227EDE770B5037F012B7E
:101B000066D001230377022343773AB94B7813F069
:101B1000100F03D003F0EF030A334B700E46044658
:101B2000002A32D1C878FFF75EFF05047078FFF70E
:101B30005AFF45EA0025B078FFF755FF284335786E
:101B400040EA45352368CA225A62236853225A6202
:101B50002046FFF7C8FE064610BB236825F07F45E8
:101B600025F0C0055D602268D36823F08003D36050
:101B700023689B6813F0200F1CD02368FF225A6251
:101B8000012363770023237712E0CD7848780002A1
:101B900040EA05408D7828430D7840EA4535D1E785
:101BA0002368FF225A6204236377002323770126E8
:101BB000304670BD2046FFF77DFE0028DDD023684B
:101BC000FF225A6204236377002323770126EFE77D
:101BD0000226EDE7030903EB83035A0000F00F0030
:101BE0001044C0B2704770B503689B6A4B600368CD
:101BF0001B69C3F30E038B6003681B6803F07F331C
:101C000023F0FE431D0C05F03F000870C3F30626C9
:101C10004E7003F07F048C7005F04005CD705AB90A
:101C20000D46FFF7D7FF28703046FFF7D3FF6870E7
:101C30002046FFF7CFFFA870002070BD70B5036885
:101C40005B6823F07F4323F0C003180CC870C3F314
:101C500004264E7003F03F058D70C3F342330B70C2
:101C60005AB90C46FFF7B6FFE0703046FFF7B2FFF7
:101C700060702846FFF7AEFFA070002070BD0268BC
:101C8000D36843F00103D3600268936803F007034D
:101C9000062B03D0136843F0010313600020704744
:101CA000704770477047704710B5044603681A695B
:101CB00012F0020F11D0DA6812F0020F0DD06FF09F
:101CC00002021A610123037703689B6913F0030F73
:101CD00070D0FFF7E6FF0023237723681A6912F01C
:101CE000040F12D0DA6812F0040F0ED06FF0040265
:101CF0001A610223237723689B6913F4407F5FD026
:101D00002046FFF7CEFF0023237723681A6912F0DD
:101D1000080F12D0DA6812F0080F0ED06FF0080228
:101D20001A61042323772368DB6913F0030F4ED075
:101D30002046FFF7B6FF0023237723681A6912F0C5
:101D4000100F12D0DA6812F0100F0ED06FF01002E0
:101D50001A61082323772368DB6913F4407F3DD0A1
:101D60002046FFF79EFF0023237723681A6912F0AD
:101D7000010F03D0DA6812F0010F36D123681A6917
:101D800012F0800F03D0DA6812F0800F34D123688C
:101D90001A6912F0400F03D0DA6812F0400F32D106
:101DA00023681A6912F0200F03D0DA6812F0200FAE
:101DB00030D110BDFFF774FF2046FFF773FF8AE7AD
:101DC0002046FFF76DFF2046FFF76CFF9BE720469C
:101DD000FFF766FF2046FFF765FFACE72046FFF7F9
:101DE0005FFF2046FFF75EFFBDE76FF001021A615B
:101DF000204600F025FCC1E76FF080021A61204602
:101E000000F08EF8C3E76FF040021A612046FFF73A
:101E10004AFFC5E76FF020021A61204600F07FF804
:101E2000C7E700000368304A904212D0B0F1804FFB
:101E30000FD0A2F57C4290420BD002F58062904216
:101E400007D002F58062904203D002F578429042BA
:101E500003D123F070034A681343234A90422AD0E7
:101E6000B0F1804F27D0A2F57C42904223D002F5FA
:101E7000806290421FD002F5806290421BD002F532
:101E80007842904217D002F57052904213D002F57A
:101E9000806290420FD002F5806290420BD0A2F592
:101EA0009832904207D002F58062904203D002F54A
:101EB0008062904203D123F44073CA68134323F035
:101EC00080034A69134303608B68C3620B688362B3
:101ED000054B984203D003F58063984201D10B690A
:101EE000036301234361704700000140A8B110B5AE
:101EF000044690F83D305BB1022384F83D30211D4B
:101F00002068FFF78FFF012384F83D30002010BDCB
:101F100080F83C3000F08CFEEEE7012070477047FF
:101F2000704700002DE9F04B04460268136923F462
:101F30004053C1680B4313618368026913434269CC
:101F40001343C2691A430168CB6823F4164323F094
:101F50000C031343CB600268536923F44073816917
:101F60000B435361C369B3F5004F3BD00368714A1B
:101F7000934200F0AB8002F58062934200F0A680AD
:101F8000FFF7CEFB4FF00009061849EB090716EBE7
:101F9000000B47EB090C4FEACC0343EA5B734FEAB3
:101FA000CB0293469C4663689A009B0F10EB0B0094
:101FB00049EB0C01FEF70CF95F4DA5FB003251090E
:101FC000642202FB110213013233A5FB03235B09D8
:101FD00003F0F00202EB011203F00F032168134437
:101FE0008B60A4E00368534A934239D002F58062C3
:101FF000934235D0FFF794FB83464FF0000C061850
:102000004CEB0C0716EB000847EB0C094FEAC90331
:1020100043EA58734FEAC802904699466268002125
:10202000921841EB01031BEB08004CEB0901FEF792
:10203000CFF8414DA5FB00325109642202FB110289
:10204000D3003233A5FB03235B095A0002F4F87274
:1020500002EB011203F00703216813448B6066E072
:10206000FFF76EFB80464FF00009061849EB0907A1
:1020700016EB000B47EB090C4FEACC0343EA5B730A
:102080004FEACB0293469C4662680021921841EBCE
:10209000010318EB0B0049EB0C01FEF799F8264DF4
:1020A000A5FB00325109642202FB1102D300323336
:1020B000A5FB03235B095A0002F4F87202EB01123C
:1020C00003F00703216813448B6030E0FFF738FB0F
:1020D0004FF00009061849EB090716EB000B47EB18
:1020E000090C4FEACC0343EA5B734FEACB029346F9
:1020F0009C4663689A009B0F10EB0B0049EB0C01A8
:10210000FEF766F80C4DA5FB00325109642202FB74
:10211000110213013233A5FB03235B0903F0F00224
:1021200002EB011203F00F03216813448B60BDE83A
:10213000F08B00BF001001401F85EB512DE9F041ED
:1021400005460F4616469846069C2B681B6837EADC
:1021500003030CBF01230023B3421DD1B4F1FF3FA1
:10216000F3D02CB1FEF756FAA0EB0800A042ECD950
:102170002A68D36823F4D073D3602A68536923F0A4
:1021800001035361202385F8393085F83A30002364
:1021900085F83830032000E00020BDE8F08158B316
:1021A00010B5044690F839300BB3242384F8393045
:1021B0002268D36823F40053D3602046FFF7B2FEB1
:1021C0002268136923F4904313612268536923F052
:1021D0002A0353612268D36843F40053D36000207C
:1021E000E063202384F8393084F83A3010BD80F859
:1021F000383000F073FDD8E7012070472DE9F04337
:1022000083B01E4690F83930DBB2202B56D10446FD
:102210000D469046002956D0002A56D090F8383006
:10222000012B54D0012380F838304FF00009C0F85A
:102230003C90212380F83930FEF7ECF90746A4F8EA
:102240002480A4F8268084F8389010E000963B465D
:10225000002280212046FFF771FF002839D12B880A
:102260002268C3F3080353602369C3B90235E38CC2
:102270009BB2B3B1E38C013B9BB2E384A368B3F59B
:10228000805FE3D000963B46002280212046FFF786
:1022900055FF00BB2A7823685A600135E7E701350E
:1022A000E5E700963B46002240212046FFF746FF27
:1022B000034690B9202284F8392000E00223184612
:1022C00003B0BDE8F0830123F9E70123F7E7022318
:1022D000F5E70323F3E70323F1E70323EFE708B56B
:1022E000FEF78CF9FEF7EDFD08BD000008B50248C9
:1022F000FEF740FC08BD00BFCC00002008B5024836
:10230000FEF738FC08BD00BFCC00002008B502482D
:10231000FEF730FC08BD00BFCC00002008B5024825
:10232000FEF728FC08BD00BFCC00002008B502481D
:10233000FFF7BAFC08BD00BF98010020034608B9AA
:10234000012920D00BB902291FD0012B09D0012B64
:102350000BD0022B0DD0022B0FD08B4211D00420BA
:1023600070470029F3D1184670470229F1D1084679
:1023700070470029EFD1184670470129EDD1084672
:10238000704703207047022070470120704700000B
:1023900030B58DB00024089409940A940B940294EB
:1023A00003940494059406940094134B1A6B42F022
:1023B00001021A631A6B02F001020092009A019462
:1023C0001A6B42F008021A631B6B03F008030193B7
:1023D000019B01250CA941F8145D0848FEF776FD24
:1023E000039504944FF47043029302A90448FEF746
:1023F0006DFD0DB030BD00BF00380240000002404E
:10240000000C024010B5013803281CD8DFE800F0AA
:10241000021C3650334C01224FF480512046FEF707
:1024200040FE00224FF400512046FEF73AFE002203
:102430004FF480412046FEF734FE00224FF4004165
:102440002046FEF72EFE10BD264C00224FF4805190
:102450002046FEF726FE01224FF400512046FEF7EB
:1024600020FE00224FF480412046FEF71AFE002293
:102470004FF400412046FEF714FEE4E7194C002219
:102480004FF480512046FEF70CFE00224FF400511D
:102490002046FEF706FE01224FF480412046FEF75B
:1024A00000FE00224FF400412046FEF7FAFDCAE785
:1024B0000C4C00224FF480512046FEF7F2FD002222
:1024C0004FF400512046FEF7ECFD00224FF480410E
:1024D0002046FEF7E6FD01224FF400412046FEF7BC
:1024E000E0FDB0E7000C024010B50446FDF7F0FF38
:1024F0004FF0FF3382B221460148FFF77FFE10BD47
:102500008C00002000B583B0002301930F4B1A6CA0
:1025100042F080521A641B6C03F080530193019BBC
:102520000B4B5B6813F0020F02D103B05DF804FBA4
:10253000074B1A6842F008021A601A6842F0040257
:102540001A600448FFF7D0FFEFE700BF00380240F1
:10255000007000400C38000808B50248FFF7C4FFBF
:1025600008BD00BF2838000808B54FF400410448F2
:10257000FEF79DFD4FF4FA70FEF752F8F5E700BF45
:10258000000C024008B51048104B0364002383641C
:1025900080F85930012280F85B2080F85A3080F8AA
:1025A0005C3080F8583080F85D3005224264C364A6
:1025B0004FF4E022026543654030FEF745F800B96C
:1025C00008BDFFF7D1FF00BF8C0000200064004071
:1025D00000B58BB028220021684600F03BFC0123A7
:1025E0000893079369460448FEF7D4F810B90BB076
:1025F0005DF804FBFFF7B8FFCC00002000B589B000
:1026000000230393049307930423069340F2336358
:1026100002930223059301AB0DF1030202A90648C0
:10262000FEF77CF928B90548FFF75EFF09B05DF8B1
:1026300004FBFFF799FF00BFCC00002040380008E2
:1026400008B501210E48FEF725FD012809D00D4BE4
:10265000002283F868200B4B93F86830642B07D076
:1026600008BD084A92F86830013382F86830F2E712
:10267000044B002283F86820FFF7C0FFF0E700BF9B
:10268000000002408C00002010B5A6B08DF80700B5
:1026900000232193229323932593144B1BAC0FCB40
:1026A00084E80F000223249340F2111320931FAB00
:1026B0000DF1070220A90E48FEF730F980B99DF808
:1026C0000730013B26AA02EB830353F82C2C09495F
:1026D00002A800F01FFC02A8FFF706FF26B010BDFD
:1026E0000548FFF701FFFFF73FFF00BFD0370008A5
:1026F000CC000020A03800086C380008F0B58FB07E
:10270000002209920A920B920C920D92089206AB4B
:102710001A4903C983E8030009A91948FFF763FAB6
:1027200038BB002208A91648FFF788FA18BB9DF8A5
:1027300023209DF821309DF822009DF824509DF81B
:1027400025609DF826709DF8271089090D4C0DF124
:10275000380C0CEB810151F8201C04910397029670
:10276000019500900849204600F0D4FB20460FB0A8
:10277000F0BDFFF7F9FEFFF7F7FE00BFE0370008F6
:10278000F800002018010020C438000810B5BAB0C5
:102790000024389439946422214606A800F05AFB9C
:1027A00003AB414A07CA83E80700404838AB00F151
:1027B000F00221464030FEF726F980B93B4BD3F8B2
:1027C000F03040F29F4293420BD040F2336293428A
:1027D0003FD040F27B72934256D03AB010BDFFF723
:1027E000C3FE324AD2F8FC20002AEED19DF8E03038
:1027F0003AAA02EB830353F8DC2C2D491FA800F002
:1028000089FB1FA8FFF770FE00F050FB00F04EFBA5
:10281000284981FB0031A1EBE07101EB4101411A34
:10282000CCB23AAB03EB840353F8DC2C22491FA84B
:1028300000F070FB1FA8FFF757FE21469DF8E0004F
:10284000FFF77CFD0446FFF7DDFD2046FFF71CFF88
:10285000C3E7164AD2F8FC20002ABAD19DF8E0203E
:102860009DF8E1309DF8E2109DF8E30001900091A1
:10287000124906A800F04EFBFFF740FF06A900F042
:1028800069FBFFF731FEA8E7084BD3F8FC30002BBB
:10289000A3D10B48FFF728FE4FF48070FEF710FC21
:1028A000FEF716FC99E700BFE83700088C0000200F
:1028B000EC380008565555551439000828390008D9
:1028C0006C39000808B50B480B4BC0F80C313123AC
:1028D000C0F8103140F2E733C0F8183100F58670C7
:1028E000FFF704FB18B90548FFF7C9F908BDFFF762
:1028F0003BFE00BF8C00002000100040980100202B
:1029000000B59BB06422002101A800F0A3FA114891
:10291000114BC366402303677F234367FF2383670D
:102920000023C367C0F88030C0F884306C30FEF7F5
:10293000F8FF10B91BB05DF804FB064B93F8892033
:10294000064901A800F0E6FA01A8FFF7CDFDFFF760
:102950000BFE00BF8C0000200028004088390008D2
:1029600000B587B00022CDF80620CDF80A20CDF8BA
:102970000E20CDF81220ADF81620009204238DF819
:10298000043002238DF8053040238DF8073001A96B
:102990001148FFF733F8A0B901238DF80230022364
:1029A0008DF8013006238DF8003014238DF80330A4
:1029B000002269460848FFF7A0F838B907B05DF86B
:1029C00004FB0648FFF790FDFFF7CEFD0448FFF734
:1029D0008BFDFFF7C9FD00BFF8000020A0390008FB
:1029E000B439000808B50948094B03604FF4E133D6
:1029F000436000238360C360036183610C234361F0
:102A0000FFF7CDFB00B908BDFFF7AEFD8C0000203D
:102A10000044004010B594B00446282200210DEB7C
:102A2000020000F017FA0023059306930793012391
:102A300008934FF4A023099302230E934FF48002CE
:102A40000F920F2203920493322C29D0B42C47D139
:102A500000230193254A116C41F080511164126CDE
:102A600002F080520192019A0293214A116841F4C6
:102A700080411160126802F480420292029A082298
:102A800010924FF4B4721192022212921392059393
:102A90004FF4A05306934FF48053079305240BE0A3
:102AA00008231093642311930223129313934FF47A
:102AB000805306930793012408A8FEF719FB88B9F1
:102AC000214603A8FEF776FD70B9FEF723FE094BF9
:102AD000A3FB00308009FEF7CDF90420FEF7E0F9F2
:102AE00014B010BDFFF740FDFFF73EFD0038024077
:102AF00000700040D34D621008B5FDF765FD32202F
:102B0000FFF788FFFFF7FEFCFFF7DCFEFFF76AFF29
:102B1000FFF73EFCFFF7F4FEFFF722FFFFF732FD61
:102B2000FFF756FD40F203410A48FEF706F808B1E8
:102B3000FFF71AFD0748FDF7C3FE08B1FFF714FDC4
:102B4000002000F017FA00F08DF90348FFF7CCFCE5
:102B5000FEE700BFCC000020C839000808B50320FC
:102B6000FEF734F90B4A536A43F4E0235362002220
:102B700011466FF00B00FEF73BF9002211466FF093
:102B80000A00FEF735F9002211466FF00900FEF742
:102B90002FF908BD00ED00E010B588B000240594C1
:102BA0000194214B1A6C42F000721A641A6C02F004
:102BB00000720192019A02941A6B42F002021A63A7
:102BC0001B6B03F002030293029B4FF440730393C9
:102BD00002230493032306930923079303A91348AD
:102BE000FEF774F922460F211320FEF701F9224661
:102BF0000F211420FEF7FCF822460F211520FEF7C6
:102C0000F7F822460F211620FEF7F2F81320FEF700
:102C100023F91420FEF720F91520FEF71DF91620E0
:102C2000FEF71AF908B010BD003802400004024057
:102C300010B582B000240194094B1A6C42F01002C6
:102C40001A641B6C03F010030193019B3620FEF7FE
:102C500003F922460F213620FEF7CAF802B010BD54
:102C60000038024010B590B02C22002105A800F0D9
:102C7000F1F8002300930193029303930823049334
:102C80000123099304A8FEF733FA68B902230093DD
:102C90004FF4007303936846FEF762FD80B90B4B57
:102CA00001221A6010B010BD0246094C09492046A5
:102CB00000F030F92046FFF717FCFFF755FCE5E779
:102CC0000548FFF711FCFFF74FFCE8E73C0E4742D1
:102CD000D8010020403A0008543A000870B588B086
:102CE000002406940194194B1A6C42F400321A64C1
:102CF0001A6C02F400320192019A02941A6B42F0AB
:102D000001021A631B6B03F001030293029B02236F
:102D10000493012305930723079308AD042345F883
:102D2000143D0B4E29463046FEF7D0F80823039396
:102D300029463046FEF7CAF82620FEF78DF82246CF
:102D40000F212620FEF754F808B070BD003802406D
:102D50000000024008B503460B4A126842B10A4A15
:102D6000106803446A46934206D8074A136008BDB8
:102D7000054A06491160F2E700F042F80C230360AF
:102D80004FF0FF30F3E700BF3C0200205802002064
:102D9000054BD3F8882042F47002C3F888204FF026
:102DA00000629A60704700BF00ED00E0DFF834D0A9
:102DB000002103E00C4B5B58435004310B480C4B93
:102DC00042189A42F6D30B4A02E0002342F8043B31
:102DD000094B9A42F9D3FFF7DBFF00F017F8FFF732
:102DE0008BFE704700000220C03A0008000000205F
:102DF000700000207000002054020020FEE7000058
:102E0000014B1868704700BF0C00002070B50D4ED4
:102E10000D4CA41BA4100025A54209D10B4E0C4C4F
:102E200000F0CAFCA41BA4100025A54205D170BD6A
:102E300056F8253098470135EEE756F82530984783
:102E40000135F2E7B83A0008B83A0008B83A000885
:102E5000BC3A000802440346934200D1704703F88D
:102E6000011BF9E738B50D4B1C68A36B05467BB910
:102E7000182000F0ABF80A4A0A4BA063C0E900230F
:102E8000094B83600B23838101220023C0E90423C3
:102E9000A36B00221D615A6138BD00BF0C000020E9
:102EA0000E33CDAB34126DE6ECDE050038B5134BB6
:102EB0001C68A36B7BB9182000F088F8104A114BEE
:102EC000A063C0E90023104B83600B2383810122A0
:102ED0000023C0E90423A16B0C480A694B690C4C20
:102EE000504304FB0300A2FB04230344541C43F19E
:102EF0000005C1E9044525F0004038BD0C00002064
:102F00000E33CDAB34126DE6ECDE05002DF45158D6
:102F10002D7F954C0EB400B59CB01DAB0290069071
:102F20006FF00041094807910491094953F8042BB7
:102F300005910068019302A900F052F9029B00225A
:102F40001A701CB05DF804EB03B070470C00002051
:102F50000802FFFF10B503461A785C1C3AB9013B22
:102F600011F8012B03F8012F002AF9D110BD2346D7
:102F7000F2E700001FB50B4B0446002269461868B3
:102F800000F012F8002805DA4FF0FF324FF0FF335F
:102F9000CDE90023DDE900010CB1C4E9000104B072
:102FA00010BD00BF0C00002038B5074C00230546BB
:102FB00008461146236000F0F7FB431C02D123684A
:102FC00003B12B6038BD00BF50020020024B014608
:102FD000186800F051B800BF0C00002038B5054655
:102FE000002945D051F8043C0C1F002BB8BFE41851
:102FF00000F0AAFB1F4A1368104633B963601460DF
:103000002846BDE8384000F0A0BBA3420CD9216897
:103010006218934204BF1A685B68636004BF521869
:1030200022600460ECE713465A680AB1A242FAD95A
:1030300019685818A0420BD12068014458188242E0
:103040001960DDD1106852685A6001441960D7E7F1
:1030500002D90C232B60D3E7206821188A4204BFD1
:1030600011685268626004BF091821605C60C7E79C
:1030700038BD00BF4402002070B5CD1C25F003050B
:1030800008350C2D38BF0C25002D064601DBA94262
:1030900003D90C233360002070BD00F055FB214A9A
:1030A0001468214691B9204C23681BB9304600F0C2
:1030B00017FB20602946304600F012FB431C24D148
:1030C0000C233360304600F040FBE4E70B685B1BE9
:1030D00018D40B2B0FD90B60CD50CC18304600F014
:1030E00034FB04F10B00231D20F00700C31AD3D0DA
:1030F0005A42E250D0E78C424B6816BF63601360BF
:103100000C46EBE70C464968CCE7C41C24F00304EA
:10311000A04205D0211A304600F0E2FA0130CFD0AB
:103120002560DBE744020020480200202DE9F0473B
:103130008E689E4282460C469046994637D88A89C8
:1031400012F4906F31D0256809696F1A65690223FE
:1031500005EB450595FBF3F509F101033B449D4261
:1031600038BF1D46530530D52946FFF785FF064673
:1031700050B90C23CAF80030A38943F04003A3815F
:103180004FF0FF30BDE8F0873A46216900F0B8FA09
:10319000A38923F4906343F08003A38126616561D2
:1031A0003E44ED1B2660A5604E464E4500D94E4676
:1031B00032464146206800F0AEFAA3689B1BA3602C
:1031C00023681E4426600020DCE72A4600F0BEFA91
:1031D00006460028E2D121695046FFF7FFFEC8E706
:1031E0002DE9F04F1D468B891F069DB080460C4689
:1031F00016460FD50B696BB94021FFF73DFF2060E4
:10320000206128B90C23C8F800304FF0FF30C8E027
:10321000402363610023099320238DF82930302354
:103220008DF82A3003954FF0010B37463D4615F8CF
:10323000013B0BB1252B3ED1B7EB060A0BD0534611
:10324000324621464046FFF771FF013000F0A4806E
:10325000099B534409933B78002B00F09D80002389
:103260004FF0FF32CDE90523049307938DF85330D7
:103270001A932F46052217F8011B5048FDF730F925
:10328000049BD0B9D90644BF20228DF853201A07D9
:1032900044BF2B228DF853202A782A2A15D0079A6A
:1032A0002F4600200A25394611F8013B303B092BF7
:1032B0004DD9B8B10FE02F46B8E7404A801A0BFA53
:1032C00000F0184304903D46D3E7039A111D12689D
:1032D0000391002A01DB079204E0524243F002030B
:1032E000079204933B782E2B0CD17B782A2B33D179
:1032F000039B1A1D1B680392002BB8BF4FF0FF33CE
:10330000023705932E4D397803222846FDF7E8F859
:1033100038B14023401B03FA00F0049B03430137FC
:103320000493397827488DF8281006227E1CFDF773
:10333000D7F8002838D0244B13BB039B073323F066
:10334000070308330393099B4B4409936DE705FB7F
:10335000023201200F46A6E70023013705931946E4
:103360000A25384610F8012B303A092A03D9002BD8
:10337000C8D00591C6E705FB012101230746F0E708
:1033800003AB00932246114B04A94046AFF30080E3
:10339000B0F1FF3F8146D6D1A3895B063FF535AF3B
:1033A00009981DB0BDE8F08F03AB00932246074B90
:1033B00004A9404600F082F8EAE700BF7C3A000822
:1033C000823A0008863A0008000000002D3100080B
:1033D0002DE9F04791461F468A680B69DDF8208089
:1033E0009342B8BF1346C9F8003091F8432006460F
:1033F0000C4612B10133C9F800302368990642BF68
:10340000D9F800300233C9F80030256815F00605F8
:1034100007D104F1190AE368D9F800209B1AAB42DE
:1034200028DC94F843302268003318BF0123920649
:103430002DD404F1430239463046C047013020D034
:103440002368E568D9F8002003F00603042B08BFC1
:10345000AD1AA36822690CBF25EAE57500259342E1
:10346000C4BF9B1AED184FF000091A344D451AD10C
:10347000002008E00123524639463046C04701305B
:1034800003D14FF0FF30BDE8F0870135C3E7E11805
:103490005A1C302081F84300224494F8451082F8E9
:1034A00043100233C5E70123224639463046C04760
:1034B0000130E6D009F10109D8E700002DE9F04319
:1034C00001F1430C0C46097E85B06E29174606466D
:1034D00098460C9A00F0B38022D8632936D00AD8D7
:1034E000002900F0B980582900F0838004F14205DA
:1034F00084F8421032E0642901D06929F6D12068AD
:103500001368050603F104012AD51B681160002B1E
:1035100003DA2D225B4284F843206F480A2239E007
:10352000732900F09D8008D86F2920D07029DDD143
:10353000236843F02003236003E0752917D078291E
:10354000D4D1782384F84530644855E01368191DB8
:103550001B68116004F1420584F8423001238CE0BD
:103560001B68116010F0400F18BF1BB2CFE7136843
:103570002568181D1060280601D51B6802E0680642
:10358000FBD51B8854486F2914BF0A22082200214A
:1035900084F843106568A560002DC0F2958021680D
:1035A00021F004012160002B3DD1002D40F08E80E0
:1035B0006546082A0BD12368DB0708D523696268B2
:1035C0009A42DEBF302305F8013C05F1FF35ACEB34
:1035D00005032361CDF800803B4603AA214630460F
:1035E000FFF7F6FE01304DD14FF0FF3005B0BDE8DA
:1035F000F083394884F84510136821681D1D1B6845
:1036000015600A060BD5CA0744BF41F020012160AE
:103610001BB9226822F0200222601022B7E74D0673
:1036200048BF9BB2EFE76546B3FBF2F102FB1133F3
:10363000C35C05F8013D0B460029F5D1B9E71368D5
:1036400025686169181D106028061B6801D519607E
:1036500002E06A06FBD51980002323616546B9E7BD
:103660001368191D11601D68626800212846FCF767
:1036700037FF08B1401B606063682361002384F852
:103680004330A7E723692A4639463046C047013010
:10369000AAD023689B0713D4E068039B9842B8BF65
:1036A0001846A3E701234A4639463046C047013051
:1036B0009AD00135E368039A9B1AAB42F2DCEBE740
:1036C000002504F11909F5E7002BACD1037884F843
:1036D000423004F142056CE78D3A00089E3A00083A
:1036E00038B5064C0023054608462360FFF732FB39
:1036F000431C02D1236803B12B6038BD5002002067
:1037000010B5431E0A44914200D110BD11F8014B7F
:1037100003F8014FF7E7884210B501EB020307D821
:10372000421E99420AD011F8014B02F8014FF8E706
:103730008342F5D98118D21AD34200D110BD13F8B3
:10374000014D01F8014DF7E770477047F8B507469E
:1037500014460E4621B91146BDE8F840FFF78CBC6F
:1037600022B9FFF73BFC25462846F8BD00F014F8C7
:10377000A0420FD221463846FFF77EFC05460028BE
:10378000F2D031462246FFF7BBFF31463846FFF7FD
:1037900025FCE9E73546E7E751F8043C181F002B04
:1037A000BCBF0B58C0187047024B58221A604FF02C
:1037B000FF30704750020020F8B500BFF8BC08BCCD
:1037C0009E467047F8B500BFF8BC08BC9E467047DF
:1037D000103A00081C3A0008283A0008303A00085D
:1037E000EC390008F0390008F4390008FC39000809
:1037F000043A000800000000000000000102030479
:10380000060708090000000001020304576F6B65FA
:103810002075702066726F6D205374616E646279DA
:10382000206D6F64650D0A0043414E204572726F32
:1038300072204F636375727265640D0A00000000A8
:1038400053656E742052656D6F7465204672616DAC
:103850006520746F2061736B20666F722067616DE5
:10386000652073746174730D0A00000073656E64E3
:103870005F67616D655F726573756C742048414C5C
:103880005F43414E5F41646454784D657373616773
:1038900065205478206572726F720D0A0000000076
:1038A00053656E74206D6573736167652077697405
:1038B000682067616D6520726573756C743A2025A8
:1038C000730D0A003230253032642D253032642DDC
:1038D0002530326420253032643A253032643A256E
:1038E000303264202573202D200000004D65737355
:1038F0006167652072656365697665642E204E7523
:10390000636C656F27732068616E6420697320257E
:10391000730D0A004469736327732068616E642025
:1039200069732025730D0A0053544154533A204EB5
:1039300075636C656F2057696E733A2025642C207F
:10394000446973632057696E733A2025642C2054B0
:103950006965733A2025642C2047616D65204572A6
:10396000726F723A2025640D0A0000004C69676886
:1039700074206C6F73743B20676F6E6520746F20CA
:10398000736C6565700D0A0052544320696E69744A
:10399000206572726F723A2025640D0A00000000E3
:1039A0005254432053657454696D65206572726F7B
:1039B000720D0A00525443205365744461746520AB
:1039C0006572726F720D0A004469736320696E69D3
:1039D0007469616C697A6174696F6E207375636371
:1039E00065737366756C0D0A00000000414D0000A0
:1039F000504D0000526F636B000000005061706515
:103A00007200000053636973736F727300000000EB
:103A10004E75636C656F2077696E730044697363DC
:103A20002077696E73000000412074696500000012
:103A30004572726F72206F63637572726564000005
:103A40004C5349206F7363206572726F723A202560
:103A5000640D0A00525443207065726920636C6FD4
:103A6000636B20636F6E66696720696E204D5350EB
:103A7000206572726F720D0A00000000232D302B3A
:103A80002000686C4C00656667454647003031325F
:103A900033343536373839414243444546003031B6
:103AA0003233343536373839616263646566000015
:083AB00050C7FF7F0100000078
:043AB800B50100084C
:043ABC00910100086C
:103AC00001000000100000000024F400100000209D
:103AD00000000000000000000000000000000000E6
:103AE00000000000000000000000000000000000D6
:103AF00000000000000000000000000000000000C6
:103B000000000000000000000000000000000000B5
:103B100000000000000000000000000000000000A5
:103B20000000000000000000000000000000000095
:0400000508002DAD15
:00000001FF
