:020000040800F2
:100000000000022075290008C5290008C52900083C
:10001000C5290008C5290008C529000800000000FE
:10002000000000000000000000000000C5290008DA
:10003000C529000800000000C5290008BF1F0008EE
:10004000C5290008C5290008C5290008C5290008D8
:10005000C5290008C5290008C5290008C5290008C8
:10006000C5290008C52900081D200008C529000869
:10007000C5290008C5290008C5290008C5290008A8
:10008000C5290008C5290008C5290008CD1F00089A
:10009000DD1F0008ED1F0008FD1F0008C52900082E
:1000A000C5290008C5290008C5290008C529000878
:1000B000C5290008C5290008C5290008C529000868
:1000C000C5290008C5290008C5290008C529000858
:1000D000C5290008C5290008C5290008C529000848
:1000E00027200008C5290008C5290008C5290008DF
:1000F000C5290008C5290008C5290008C529000828
:10010000C5290008C5290008C5290008C529000817
:10011000C5290008C52900080D200008C5290008C8
:10012000C5290008C5290008C5290008C5290008F7
:10013000C52900080000000000000000C5290008D3
:10014000C5290008C5290008C5290008C5290008D7
:10015000C5290008C5290008C5290008C5290008C7
:10016000C5290008C5290008C5290008C5290008B7
:10017000C5290008C5290008C5290008000000009D
:1001800000000000C5290008000000000000000079
:10019000C52900080000000000000000C529000873
:1001A000000000000000000000000000C529000859
:1001B000C5290008C5290008C5290008C529000867
:0401C000C529000845
:1001D00010B5054C237833B9044B13B10448AFF381
:1001E00000800123237010BD740000200000000077
:1001F0006033000808B5034B1BB103490348AFF354
:10020000008008BD00000000780000206033000876
:1002100053B94AB9002908BF00281CBF4FF0FF316D
:100220004FF0FF3000F072B9ADF1080C6DE904CE6B
:1002300000F006F8DDF804E0DDE9022304B07047C1
:100240002DE9F047089E04468846002B4BD18A4290
:10025000154667D9B2FA82F24AB1C2F1200701FA13
:1002600002F320FA07F7954047EA030894404FEA63
:10027000154E230CB8FBFEF71FFA85FC0EFB178802
:1002800043EA084307FB0CF1994209D9EB1807F13F
:10029000FF3080F01B81994240F21881023F2B44CD
:1002A0005B1AA4B2B3FBFEF00EFB103344EA034426
:1002B00000FB0CFCA44509D92C1900F1FF3380F098
:1002C0000781A44540F2048102382C4440EA0740EB
:1002D000A4EB0C0400271EB1D4400023C6E9004360
:1002E0003946BDE8F0878B4209D9002E00F0EB803B
:1002F0000027C6E9000138463946BDE8F087B3FA61
:1003000083F7002F47D18B4202D3824200F2FA805A
:10031000841A61EB030301209846002EE0D0C6E961
:100320000048DDE702B9FFDEB2FA82F2002A40F0AF
:100330008F80491B4FEA154E1FFA85F80127B1FB44
:10034000FEFC230C0EFB1C1143EA014308FB0CF1DD
:10035000994207D9EB180CF1FF3002D2994200F212
:10036000CD808446591AA3B2B1FBFEF00EFB1014E7
:1003700043EA044408FB00F8A04507D92C1900F112
:10038000FF3302D2A04500F2B6801846A4EB080461
:1003900040EA0C409FE7C7F1200CBB4022FA0CFE5C
:1003A0004EEA030E01FA07F420FA0CF521FA0CF3D9
:1003B0004FEA1E482543B3FBF8F92C0C08FB193310
:1003C0001FFA8EFA44EA034309FB0AF49C4202FA3C
:1003D00007F200FA07F10BD91EEB030309F1FF3016
:1003E00080F087809C4240F28480A9F10209734426
:1003F0001B1BADB2B3FBF8F008FB103345EA034416
:1004000000FB0AFAA24508D91EEB040400F1FF33F1
:100410006BD2A24569D90238744440EA0940A0FB76
:100420000289A4EB0A044C45C2464B4654D351D032
:10043000002E69D0B1EB0A0564EB030404FA0CFC4E
:10044000FD40FC404CEA0505C6E90054002747E79B
:10045000C2F1200320FA03F7954001FA02F021FAD5
:1004600003F34FEA154E3843010CB3FBFEF71FFAB6
:1004700085F80EFB173341EA034107FB08F38B4273
:1004800004FA02F407D9691807F1FF3C2FD28B4216
:100490002DD9023F2944CB1A81B2B3FBFEF00EFBEB
:1004A000103341EA034100FB08F38B4207D9691876
:1004B00000F1FF3C17D28B4215D902382944C91AE2
:1004C00040EA07473BE73746304609E70746E7E695
:1004D0001846FBE64145ABD2B8EB020A69EB0E02C7
:1004E00001381346A4E76046E9E7184695E76746F2
:1004F000D1E781467CE702382C4447E7ACF1020C97
:100500002B442FE7384608E73746E9E6704700BF37
:10051000034613F8012B002AFBD1181A0138704743
:1005200001F0FF01102A2BDB10F0070F08D010F8A4
:10053000013B013A8B422DD010F0070F42B3F6D1A8
:10054000F0B441EA012141EA014122F007047FF0C1
:1005500000070023F0E80256083C85EA010586EA18
:10056000010685FA47F5A3FA87F586FA47F6A5FA54
:1005700087F68EB9EED1F0BC01F0FF0102F0070260
:1005800032B110F8013B013A83EA010313B1F8D10B
:100590000020704701387047002D06BF35460338EC
:1005A000073815F0010F07D1013015F4807F02BF25
:1005B000013015F4C03F0130F0BC0138704700BF76
:1005C00010B504460E4B18784FF47A73B3FBF0F372
:1005D0000C4A1068B0FBF3F000F06CFC68B90F2C0B
:1005E00001D901200AE0002221464FF0FF3000F03F
:1005F0001FFC034B5C60002000E0012010BD00BF29
:10060000000000200C00002008B50B4B1A6842F4D3
:1006100000721A601A6842F480621A601A6842F422
:1006200080721A60032000F0F1FB0020FFF7C8FF82
:1006300002F09CF8002008BD003C0240034A11680B
:10064000034B1B780B441360704700BFA4000020CD
:1006500000000020014B1868704700BFA400002074
:1006600038B50446FFF7F6FF0546B4F1FF3F02D068
:10067000044B1B781C44FFF7EDFF401BA042FAD34C
:1006800038BD00BF00000020002800F0A18038B570
:10069000044690F82030D3B12268136823F0020397
:1006A0001360FFF7D7FF054623685A6812F0020F60
:1006B00010D0FFF7CFFF401B0A28F5D9636A43F437
:1006C00000336362052384F82030012038BD02F036
:1006D0006BF8E1E71A6842F001021A60FFF7BAFF0F
:1006E000054623685A6812F0010F0DD1FFF7B2FFDB
:1006F000401B0A28F5D9636A43F40033636205237B
:1007000084F820300120E1E7227E012A3DD01A68DA
:1007100022F080021A60637E012B3BD022681368AE
:1007200023F040031360A37E012B39D022681368A5
:1007300023F020031360E37E012B37D02268136877
:1007400043F010031360237F012B35D02268136818
:1007500023F008031360637F012B33D022681368F2
:1007600023F004031360A368E26813432269134370
:10077000626913436268013A21681343CB61002028
:100780006062012384F82030A0E71A6842F08002FA
:100790001A60C0E72268136843F040031360C2E7A1
:1007A0002268136843F020031360C4E722681368CB
:1007B00023F010031360C6E72268136843F00803B0
:1007C0001360C8E72268136843F004031360CAE7A4
:1007D0000120704790F82030013BDBB2012B05D996
:1007E000436A43F4802343620120704770B4434B53
:1007F000D3F8002242F00102C3F80022D3F800220D
:1008000022F47C52C3F80022D3F80022486A42EA5C
:100810000022C3F800224A6902F01F02012000FAF8
:1008200002F2D3F81C42D0430440C3F81C42CB6907
:10083000B3B9324BD3F80C420440C3F80C42CE6833
:100840008D884C6945EA0645483443F834508E6833
:100850000C884D6944EA0644483503EBC5035C60E7
:10086000CB69012B1DD08B69002B32D1234CD4F8DE
:1008700004320340C4F804320B698BBB1F4BD3F81E
:1008800014422040C3F814020B6A012B2FD01B4ADC
:10089000D2F8003223F00103C2F80032002070BC0D
:1008A0007047164BD3F80C421443C3F80C420E6841
:1008B0008D884C6945EA0645483443F834508E68C3
:1008C0008C894D6944EA0644483503EBC5035C60F6
:1008D000C9E70A4CD4F804321343C4F80432CBE716
:1008E0000648D0F814321343C0F81432CCE7034959
:1008F000D1F81C321A43C1F81C22C8E7006400403A
:1009000038B590F82030DBB2012B05D0436A43F4B0
:1009100000234362012038BD0446022380F82030C2
:100920000268136823F001031360FFF793FE054686
:1009300023685B6813F0010F0DD0FFF78BFE401B9F
:100940000A28F5D9636A43F400336362052384F807
:1009500020300120DFE700206062DCE770B490F80F
:1009600020400568AD68013CE4B2012C06D9436A19
:1009700043F480234362012070BC704715F0E05FB0
:100980005BD0C5F30165022D3ED80124AC401C604C
:100990008B68002B3ED10E68CB68046843EA46564C
:1009A00005F118031B01E65003680C6905F11806F0
:1009B00003EB06135C600B7D012B36D0D179937964
:1009C0001B0443EA0163517943EA01231479016866
:1009D00023432C012144C1F88C31D17893781B0436
:1009E00043EA0163517843EA0123117802680B431B
:1009F0002244C2F88831026818352D01535943F05A
:100A0000010353510020B7E7436A43F400034362F4
:100A10000120B1E74C6843EAC403CC68066823436D
:100A200005F1180424013351BEE7036803EB0613F4
:100A3000596841F480715960C0E7436A43F4001378
:100A40004362012098E730B490F82040013CE4B2C2
:100A5000012C06D9436A43F480234362012030BC51
:100A6000704700296FD10468E46814F0030F64D064
:100A7000056801F11B0424012C5904F0040494605E
:100A8000002C6BD1056801F11B0424012C59640D65
:100A90001460056801F11B0424012D5905F00205BD
:100AA000D560056825446D6805F00F05156105687A
:100AB00025446D68C5F30725956105682C44646875
:100AC000240C546104680A011444D4F8B8411C7021
:100AD00004681444D4F8B841C4F307245C70046873
:100AE0001444D4F8B841C4F307449C700468144417
:100AF000D4F8B841240EDC7004681444D4F8BC4126
:100B00001C7104681444D4F8BC41C4F307245C711C
:100B100004681444D4F8BC41C4F307449C710468CD
:100B20002244D2F8BC21120EDA71F9B90268D368F6
:100B300043F02003D360002091E7436A43F400139D
:100B4000436201208BE70468246914F0030F8FD1FE
:100B5000436A43F400134362012080E7056801F112
:100B60001B0424012C59E408546092E702681369BD
:100B700043F020031361002071E790F82030013B1F
:100B8000DBB2012B05D9436A43F480234362012081
:100B900070470268536919435161002070477047DC
:100BA000704770477047704770477047704770478D
:100BB000704770472DE9F84F054603685C695F6828
:100BC0009E68D3F80C90D3F81080D3F818A014F0D6
:100BD000010F5AD016F0010F17D001229A6016F0BB
:100BE000020F08D116F0040F30D116F0080F07D00D
:100BF0004FF4805B0BE0FFF7D2FF4FF0000B06E0F5
:100C0000FFF7D0FF4FF0000B01E04FF0000B16F4A0
:100C1000807F0BD02B684FF480729A6016F4007FAF
:100C200017D116F4806F18D04BF4005B16F4803F98
:100C30002DD02B684FF480329A6016F4003F16D105
:100C400016F4802F17D04BF4004B20E04FF4006BCC
:100C5000DDE72846FFF7A4FFE8E716F4006F02D0AF
:100C60004BF4804BE2E72846FFF79DFFDEE728467E
:100C7000FFF797FF0BE016F4002F02D04BF4803BF8
:100C800005E02846FFF790FF01E04FF0000B14F05D
:100C9000080F07D019F0100F04D04BF4007B2B681D
:100CA0001022DA6014F0040F02D019F0080F60D19E
:100CB00014F0020F04D02B68DB6813F0030F5FD130
:100CC00014F0400F07D018F0100F04D04BF4806BD5
:100CD0002B6810221A6114F0200F02D018F0080FB0
:100CE00052D114F0100F04D02B681B6913F0030FBE
:100CF00051D114F4003F02D017F0100F4FD114F46B
:100D0000803F02D017F0080F50D114F4004F67D085
:100D100017F0040F61D014F4807F04D01AF0010F93
:100D200001D04BF0010B14F4007F04D01AF0020F35
:100D300001D04BF0020B14F4806F04D01AF0040FB2
:100D400001D04BF0040B14F4006F46D01AF0700A77
:100D500043D0BAF1300F48D02FD9BAF1500F47D055
:100D6000BAF1600F47D0BAF1400F31D14BF0400BD0
:100D70002EE02B680822DA602846FFF716FF97E777
:100D8000284601F057FB9BE72B6808221A6128468A
:100D9000FFF70DFFA5E72846FFF708FFA9E72B6837
:100DA00010225A602846FFF703FFA8E72B680822A5
:100DB0005A602846FFF7FDFEA7E7BAF1100F05D0ED
:100DC000BAF1200F04D14BF0100B01E04BF0080BEF
:100DD0002A68936923F0700393612B6804225A6098
:100DE000BBF1000F0AD1BDE8F88F4BF0200BEFE705
:100DF0004BF0800BECE74BF4807BE9E76B6A43EA4E
:100E00000B036B62284601F09DF9ECE7074AD368B3
:100E100023F4E0631B041B0C000200F4E0601843A1
:100E200040F0BF6040F40030D060704700ED00E05B
:100E300030B4174BDB68C3F30223C3F10704042C5F
:100E400028BF04241D1D062D18D9033B4FF0FF3584
:100E500005FA04F421EA0401994005FA03F322EAB1
:100E60000303194300280BDB0901C9B200F16040FC
:100E700000F5614080F8001330BC70470023E5E7BF
:100E800000F00F000901C9B2024B1954F4E700BF8A
:100E900000ED00E014ED00E0002807DB00F01F0289
:100EA000400901239340024A42F82030704700BFB6
:100EB00000E100E00138B0F1807F0AD2064B5860B3
:100EC000064AF02182F823100020986007221A6059
:100ED00070470120704700BF10E000E000ED00E027
:100EE000042805D0054A136823F0040313607047F3
:100EF000024A136843F004031360704710E000E0F7
:100F0000704708B5FFF7FCFF08BD000000230F2B5A
:100F100000F2D180F0B583B039E0062200E0002273
:100F2000AA403A430234644D45F82420634A1468C9
:100F3000F24302EA04054F6817F4803F01D046EA05
:100F400004055E4C2560646802EA04054F6817F4E6
:100F5000003F01D046EA0405584C6560A46802EAE7
:100F600004054F6817F4801F01D046EA0405534C6E
:100F7000A560E46822404D6815F4001F01D046EAE0
:100F800004024E4CE26001330F2B00F292800122EA
:100F90009A400C6804EA0206B242F4D14C68651E1D
:100FA000012D03D9112C01D0122C12D185685F00BC
:100FB0000324BC4025EA0405CC68BC402C43846073
:100FC000456825EA02054C68C4F300129A402A439A
:100FD0004260C4685F000322BA40D24314408D6867
:100FE000BD402543C5604C68022C01D0122C13D1A2
:100FF000DD08083550F825E003F007044FEA840CBB
:101000000F2404FA0CF42EEA040E0C6904FA0CF412
:1010100044EA0E0440F82540046822404C6804F07D
:101020000304BC40224302604A6812F0805FAAD0E9
:1010300000220192224A546C44F480445464526C5D
:1010400002F480420192019A9C08A51C1A4A52F8A7
:10105000257003F0030295000F22AA4027EA020739
:10106000184A90423FF45BAF02F58062904216D07E
:1010700002F58062904214D002F58062904212D054
:1010800002F58062904210D002F5806290420ED04C
:1010900002F5806290423FF440AF072240E7012210
:1010A0003EE702223CE703223AE7042238E7052222
:1010B00036E703B0F0BD704700380140003C014006
:1010C000003802400000024000230F2B00F2828013
:1010D000F0B529E0062700E0002707FA05F5B5423C
:1010E0005FD005685E000324B440E44325400560FA
:1010F000DD08083550F8256003F007074FEA870C34
:101100000F2707FA0CF726EA070640F82560C5689E
:101110002540C560456825EA0202426082681440A5
:10112000846001330F2B54D801229A4002EA010453
:10113000A242F6D14FEA930E0EF10206264D55F863
:10114000266003F00305AD004FF00F0C0CFA05FC10
:101150000CEA0606214FB842BED007F58067B842B8
:1011600015D007F58067B84213D007F58067B842FD
:1011700011D007F58067B8420FD007F58067B842F5
:101180000DD007F58067B842A4D00727A5E701274F
:10119000A3E70227A1E703279FE704279DE7052789
:1011A0009BE70F4D2E68E44326402E606E68264074
:1011B0006E60AE682640AE60EE683440EC60064E6D
:1011C0000EF1020456F8245025EA0C0546F8245086
:1011D00087E7F0BD704700BF0038014000000240C3
:1011E000003C014012B90904816170478161704778
:1011F00008B5054B5B69034200D108BD024B58613D
:1012000001F0BCF9F9E700BF003C0140014B0122AD
:101210001A60704720000E42054A136843F002032B
:101220001360044A136943F00403136130BF70472D
:101230000070004000ED00E010B50A4B01221A607A
:10124000FFF708FA0446084B5B6813F0080F07D154
:10125000FFF700FA001BB0F57A7FF4D9032000E015
:10126000002010BDA4000E4200700040002800F0D5
:101270009E8070B50446504B1B6803F00F038B42F1
:1012800009D2CBB24C4A1370136803F00F038B42A0
:1012900001D0012070BD236813F0020F17D013F0A6
:1012A000040F04D0454A936843F4E05393602368E5
:1012B00013F0080F04D0414A936843F460439360ED
:1012C0003E4A936823F0F003A068034393600D4601
:1012D000236813F0010F32D06368012B21D09A1ECE
:1012E000012A25D9354A126812F0020F61D033491C
:1012F0008A6822F0030213438B60FFF7ABF90646BE
:101300002E4B9B6803F00C036268B3EB820F16D080
:10131000FFF7A0F9801B41F288339842F0D90320EF
:10132000B8E7264A126812F4003FE0D10120B1E785
:10133000224A126812F0007FD9D10120AAE71E4B81
:101340001B6803F00F03AB4209D9EAB21A4B1A70BB
:101350001B6803F00F03AB4201D001209AE723681A
:1013600013F0040F06D0154A936823F4E053E168A4
:101370000B439360236813F0080F07D00F4A93685C
:1013800023F46043216943EAC103936000F044F809
:101390000A4B9B68C3F30313094AD35CD840094B3B
:1013A0001860094B1868FFF70BF9002072E701205D
:1013B000704701206EE700BF003C02400038024049
:1013C000943300080C00002004000020014B186832
:1013D000704700BF0C00002008B5FFF7F7FF044B73
:1013E0009B68C3F38223034AD35CD84008BD00BF87
:1013F00000380240A433000808B5FFF7E7FF044BAC
:101400009B68C3F34233034AD35CD84008BD00BF96
:1014100000380240A43300082DE9F04B5C4B9B6878
:1014200003F00C03082B07D00C2B5BD0042B00F02F
:10143000AD805848BDE8F08B554B5A6802F03F022A
:101440005B6813F4800F2AD0514B5B68C3F3881399
:101450001E4600275C010025E41A65EB0705A9017B
:1014600041EA9461A001001B61EB0501CB0043EA56
:101470005073C400A01943EB07014B0243EAD05359
:101480004402204619460023FEF7C2FE404B5B682B
:10149000C3F3014301335B00B0FBF3F0CAE73C4BFD
:1014A0005B68C3F388131E4600275C010025E41A1D
:1014B00065EB0705A90141EA9461A001001B61EBFE
:1014C0000501CB0043EA5073C400A01943EB0701A8
:1014D0008B0243EA90538402204619460023FEF70C
:1014E00097FED3E72A4B5A6802F03F025B6813F479
:1014F000800F28D0264B5B68C3F388131E46002755
:101500005C010025E41A65EB0705A90141EA946135
:10151000A001001B61EB0501CB0043EA5073C4003E
:10152000A01943EB07014B0243EAD0534402204683
:1015300019460023FEF76CFE154B5B68C3F302737C
:10154000B0FBF3F076E7124B5B68C3F388131E46DB
:1015500000275C010025E41A65EB0705A90141EAB3
:101560009461A001001B61EB0501CB0043EA5073BD
:10157000C400A01943EB07018B0243EA9053840295
:10158000204619460023FEF743FED5E7024851E7FF
:10159000003802400024F40000127A0070B582B0D6
:1015A0000446036813F0010F41D0A64B9B6803F07B
:1015B0000C03042B32D0A34B9B6803F00C03082BC5
:1015C00027D0A04B9B6803F00C030C2B59D0636809
:1015D000B3F5803F5BD0B3F5A02F5ED0994B1A686E
:1015E00022F480321A601A6822F480221A6063683A
:1015F000002B5CD0FFF72EF80546924B1B6813F4C6
:10160000003F14D1FFF726F8401B6428F5D90320CA
:101610009DE18C4B5B6813F4800FD2D0894B1B6823
:1016200013F4003F03D06368002B00F08D81236822
:1016300013F0020F67D0834B9B6813F00C0F4AD056
:10164000804B9B6803F00C03082B3FD07D4B9B68BD
:1016500003F00C030C2B48D0E368002B74D07A4BBA
:1016600001221A60FEF7F6FF0546764B1B6813F061
:10167000020F60D1FEF7EEFF401B0228F5D90320D0
:1016800065E1704B5B6813F4800FA0D0C6E76D4A2C
:10169000136843F480331360A9E76A4B1A6842F475
:1016A00080221A601A6842F480321A609FE7FEF7BF
:1016B000D1FF0546634B1B6813F4003FB7D0FEF71C
:1016C000C9FF401B6428F5D9032040E15D4B5B68EE
:1016D00013F4800FBAD15B4B1B6813F0020F0AD0D2
:1016E000E368012B07D0012031E1564B5B6813F40E
:1016F000800FB1D1EFE7534A136823F0F803216953
:1017000043EAC1031360236813F0080F40D06369F4
:1017100063B34E4B01221A60FEF79CFF0546494B0E
:101720005B6F13F0020F33D1FEF794FF401B0228CA
:10173000F5D903200BE1434A136823F0F80321692C
:1017400043EAC1031360DEE73F4B00221A60FEF755
:1017500081FF05463B4B1B6813F0020FD3D0FEF709
:1017600079FF401B0228F5D90320F0E0374B002217
:101770001A60FEF76FFF0546324B5B6F13F0020FE6
:1017800006D0FEF767FF401B0228F5D90320DEE0F4
:10179000236813F0040F79D02A4B1B6C13F0805F81
:1017A00033D100230193274B1A6C42F080521A6404
:1017B0001B6C03F080530193019B0125244B1B6894
:1017C00013F4807F23D0A368012B34D0052B41D0A4
:1017D0001C4B1A6F22F001021A671A6F22F00402E2
:1017E0001A67A368002B3FD0FEF734FF0646154B5F
:1017F0001B6F13F0020F48D1FEF72CFF801B41F244
:1018000088339842F3D90320A1E00025D6E7104A97
:10181000136843F480731360FEF71CFF06460C4BFD
:101820001B6813F4807FCED1FEF714FF801B0228C3
:10183000F5D903208BE0034A136F43F001031367CC
:10184000CFE700BF0038024000004742800E474209
:1018500000700040404B1A6F42F004021A671A6F82
:1018600042F001021A67BCE7FEF7F4FE06463A4B67
:101870001B6F13F0020F08D0FEF7ECFE801B41F245
:1018800088339842F3D9032061E0E5B9A369002BBE
:101890005CD0314A926802F00C02082A59D0022B1F
:1018A00017D02E4B00221A60FEF7D4FE04462A4BB6
:1018B0001B6813F0007F45D0FEF7CCFE001B02280A
:1018C000F5D9032043E0244A136C23F080531364BA
:1018D000DCE7224B00221A60FEF7BCFE05461E4BD9
:1018E0001B6813F0007F06D0FEF7B4FE401B0228F1
:1018F000F5D903202BE0E369226A1343626A43EAC5
:101900008213A26A5208013A43EA0243E26A43EAB6
:101910000263226B43EA02730F4A53600F4B0122AA
:101920001A60FEF797FE04460B4B1B6813F0007F0E
:1019300006D1FEF78FFE001B0228F5D9032006E032
:10194000002004E0002002E0012000E0002002B0BE
:1019500070BD0120FBE700BF003802406000474235
:101960000268D36843F00103D3600268936803F010
:101970000703062B03D0136843F001031360002014
:101980007047704770477047704710B5044603684A
:101990001A6912F0020F11D0DA6812F0020F0DD09E
:1019A0006FF002021A610123037703689B6913F049
:1019B000030F70D0FFF7E6FF0023237723681A692F
:1019C00012F0040F12D0DA6812F0040F0ED06FF08C
:1019D00004021A610223237723689B6913F4407F72
:1019E0005FD02046FFF7CEFF0023237723681A69D4
:1019F00012F0080F12D0DA6812F0080F0ED06FF054
:101A000008021A61042323772368DB6913F0030FAC
:101A10004ED02046FFF7B6FF0023237723681A69CC
:101A200012F0100F12D0DA6812F0100F0ED06FF013
:101A300010021A61082323772368DB6913F4407FBF
:101A40003DD02046FFF79EFF0023237723681A69C5
:101A500012F0010F03D0DA6812F0010F36D12368BB
:101A60001A6912F0800F03D0DA6812F0800F34D1B7
:101A700023681A6912F0400F03D0DA6812F0400FA1
:101A800032D123681A6912F0200F03D0DA6812F0FD
:101A9000200F30D110BDFFF774FF2046FFF773FF12
:101AA0008AE72046FFF76DFF2046FFF76CFF9BE7B4
:101AB0002046FFF766FF2046FFF765FFACE72046AC
:101AC000FFF75FFF2046FFF75EFFBDE76FF0010203
:101AD0001A61204600F07AFCC1E76FF080021A61BB
:101AE000204600F08DF8C3E76FF040021A612046EF
:101AF000FFF74AFFC5E76FF020021A61204600F0A9
:101B00007EF8C7E70368304A904212D0B0F1804FA8
:101B10000FD0A2F57C4290420BD002F58062904239
:101B200007D002F58062904203D002F578429042DD
:101B300003D123F070034A681343234A90422AD00A
:101B4000B0F1804F27D0A2F57C42904223D002F51D
:101B5000806290421FD002F5806290421BD002F555
:101B60007842904217D002F57052904213D002F59D
:101B7000806290420FD002F5806290420BD0A2F5B5
:101B80009832904207D002F58062904203D002F56D
:101B90008062904203D123F44073CA68134323F058
:101BA00080034A69134303608B68C3620B688362D6
:101BB000054B984203D003F58063984201D10B692D
:101BC000036301234361704700000140A8B110B5D1
:101BD000044690F83D305BB1022384F83D30211D6E
:101BE0002068FFF78FFF012384F83D30002010BDEF
:101BF00080F83C3000F024FEEEE70120704770478B
:101C0000704700002DE9F04B04460268136923F485
:101C10004053C1680B4313618368026913434269EF
:101C20001343C2691A430168CB6823F4164323F0B7
:101C30000C031343CB600268536923F4407381693A
:101C40000B435361C369B3F5004F3BD00368714A3E
:101C5000934200F0AB8002F58062934200F0A680D0
:101C6000FFF7BAFB4FF00009061849EB090716EB1E
:101C7000000B47EB090C4FEACC0343EA5B734FEAD6
:101C8000CB0293469C4663689A009B0F10EB0B00B7
:101C900049EB0C01FEF7BCFA5F4DA5FB0032510980
:101CA000642202FB110213013233A5FB03235B09FB
:101CB00003F0F00202EB011203F00F03216813445A
:101CC0008B60A4E00368534A934239D002F58062E6
:101CD000934235D0FFF780FB83464FF0000C061887
:101CE0004CEB0C0716EB000847EB0C094FEAC90355
:101CF00043EA58734FEAC802904699466268002149
:101D0000921841EB01031BEB08004CEB0901FEF7B5
:101D10007FFA414DA5FB00325109642202FB1102FA
:101D2000D3003233A5FB03235B095A0002F4F87297
:101D300002EB011203F00703216813448B6066E095
:101D4000FFF75AFB80464FF00009061849EB0907D8
:101D500016EB000B47EB090C4FEACC0343EA5B732D
:101D60004FEACB0293469C4662680021921841EBF1
:101D7000010318EB0B0049EB0C01FEF749FA264D65
:101D8000A5FB00325109642202FB1102D300323359
:101D9000A5FB03235B095A0002F4F87202EB01125F
:101DA00003F00703216813448B6030E0FFF724FB46
:101DB0004FF00009061849EB090716EB000B47EB3B
:101DC000090C4FEACC0343EA5B734FEACB0293461C
:101DD0009C4663689A009B0F10EB0B0049EB0C01CB
:101DE000FEF716FA0C4DA5FB00325109642202FBE6
:101DF000110213013233A5FB03235B0903F0F00248
:101E000002EB011203F00F03216813448B60BDE85D
:101E1000F08B00BF001001401F85EB512DE9F04110
:101E200005460F4616469846069C2B681B6837EAFF
:101E300003030CBF01230023B3421DD1B4F1FF3FC4
:101E4000F3D02CB1FEF706FCA0EB0800A042ECD9C1
:101E50002A68D36823F4D073D3602A68536923F0C7
:101E600001035361202385F8393085F83A30002387
:101E700085F83830032000E00020BDE8F08158B339
:101E800010B5044690F839300BB3242384F8393068
:101E90002268D36823F40053D3602046FFF7B2FED4
:101EA0002268136923F4904313612268536923F075
:101EB0002A0353612268D36843F40053D36000209F
:101EC000E063202384F8393084F83A3010BD80F87C
:101ED000383000F0CFFCD8E7012070472DE9F043FF
:101EE00083B01E4690F83930DBB2202B56D1044621
:101EF0000D469046002956D0002A56D090F838302A
:101F0000012B54D0012380F838304FF00009C0F87D
:101F10003C90212380F83930FEF79CFB0746A4F85B
:101F20002480A4F8268084F8389010E000963B4680
:101F3000002280212046FFF771FF002839D12B882D
:101F40002268C3F3080353602369C3B90235E38CE5
:101F50009BB2B3B1E38C013B9BB2E384A368B3F5BE
:101F6000805FE3D000963B46002280212046FFF7A9
:101F700055FF00BB2A7823685A600135E7E7013531
:101F8000E5E700963B46002240212046FFF746FF4A
:101F9000034690B9202284F8392000E00223184635
:101FA00003B0BDE8F0830123F9E70123F7E702233B
:101FB000F5E70323F3E70323F1E70323EFE708B58E
:101FC000FEF73CFBFEF79DFF08BD000008B5024888
:101FD000FEF7F0FD08BD00BF2801002008B502484B
:101FE000FEF7E8FD08BD00BF2801002008B5024843
:101FF000FEF7E0FD08BD00BF2801002008B502483B
:10200000FEF7D8FD08BD00BF2801002008B5024832
:10201000FFF7BBFC08BD00BFA800002008B51020DA
:10202000FFF7E6F808BD08B54FF40050FFF7E0F8F9
:1020300008BD000010B5114B5B6813F0020F04D10E
:1020400020210F48FFF740F810BD0C4B1A6842F0F2
:1020500008021A601A6842F004021A60084C012251
:1020600020212046FFF7BEF83220FEF7F9FA0022C1
:1020700020212046FFF7B6F8E2E700BF00700040DD
:102080000008024030B591B000240D940E940F94D6
:1020900006940794089409940A9401940294039472
:1020A0000494059400941C4B1A6B42F004021A63CA
:1020B0001B6B03F004030093009B4FF400530B933E
:1020C000164B0C93164D0BA92846FEF71FFF224610
:1020D0000F212820FEF7ACFE2820FEF7DDFE10239E
:1020E0000693104B0793089406A92846FEF70EFFA7
:1020F00022460F210A20FEF79BFE0A20FEF7CCFEA7
:102100002023019301230293039401A92846FEF79B
:10211000FDFE11B030BD00BF0038024000002110AC
:10212000000802400000111010B50446FEF7F0F957
:102130004FF0FF3382B221460148FFF7CFFE10BDBA
:10214000E800002008B50248FFF7EEFF08BD00BF19
:10215000AC33000810B598B0019300920B460246CC
:10216000184905A800F0BAFC05A8FFF7DDFF002418
:102170000394154B1A6B42F480221A631A6B02F413
:1021800080220392039A04941A6C42F080521A64DB
:102190001B6C03F080530493049BFFF737F808E0AF
:1021A0000A4B1B6818AA224412F84C2C1A55013409
:1021B000E4B205A8FEF7ACF901308442F0D318B0C0
:1021C00010BD00BFC43300080038024008000020E2
:1021D000F0B59FB000230293344B1A6C42F080524A
:1021E0001A641B6C03F080530293029B304B5B68B4
:1021F00013F0020F55D02F48FFF796FF00230393EB
:102200002A4A116B41F480211163126B02F480227F
:102210000392039A612204E0274A1268D25C0133D8
:10222000DBB20A2AF8D1002104910A460D46612446
:102230000BE01EA8284400F8681C0135EDB21E49C9
:1022400009688C5C00210132D2B2934211D92C2C46
:10225000EFD019480068845CA4F13000C0B20928AE
:10226000F1D8A4F1300601EB810047003146394432
:10227000E9E79DF8102011490A709DF811304B7064
:102280009DF8120088709DF81340CC700194009066
:102290000B4905A800F022FC05A8FFF745FF1FB079
:1022A000F0BD0848FFF740FFF9E700BF00380240E3
:1022B000007000400034000808000020900000205A
:1022C0001C34000868340008FEE7000008B50E481A
:1022D0000E4B03600023836043760122C27683762F
:1022E00003770376437705224260C3604FF4E02210
:1022F00002614361FEF7C8F900B908BD0448FFF761
:1023000013FFFFF7E1FF00BF280100200064004039
:102310008C34000800B58BB001220892002305938D
:1023200004930093019302930393069307926946E3
:102330000548FEF74FFA10B90BB05DF804FB0348EF
:10234000FFF7F2FEFFF7C0FF28010020A4340008C9
:1023500000B59FB0194A13AB07CA83E8070000F025
:1023600089FB174B83FB0023A3EBE07303EB4303D1
:10237000C31A8DF85B3001231C9340F29F431893DE
:1023800000231A931B9317AB0DF15B0218A90D489C
:10239000FEF7E4FA80B99DF85B301EAA02EB8303D6
:1023A00053F82C2C0849684600F098FB6846FFF764
:1023B000BBFE1FB05DF804FBFFF786FF7833000813
:1023C0005655555528010020C434000808B5FFF7BC
:1023D000BFFF08BD00B589B0124B1A788DF80020F8
:1023E0005A788DF801209A788DF80220DB788DF8E4
:1023F000033004230693029000230493059301AB5A
:102400006A4602A90848FEF7A9FA28B90748FFF763
:102410008BFE09B05DF804FB0548FFF785FEFFF76A
:1024200053FF00BF90000020280100202435000841
:10243000F434000830B59BB00024189419944B2252
:10244000214605A800F0EAFA01AD2A4B0FCB85E83A
:102450000F0018AB284A21462848FEF7F4FA58B96D
:10246000254B186840F21113984207D040F23363AD
:10247000984237D01BB030BDFFF726FF1E4BDB68FC
:10248000002BF3D19DF86030013B1AAA02EB8303C5
:1024900053F8642C1A4905A800F020FB9DF8603021
:1024A000013B032B07D8DFE803F0020E1318154A8F
:1024B0001378013313701348C37882784178007819
:1024C000FFF748FED6E70F4A537801335370F2E71F
:1024D0000C4A937801339370EDE70A4AD3780133BD
:1024E000D370E8E7044BDB68022BC3D1FFF772FF20
:1024F000C0E700BF843300085001002028010020FD
:10250000483500089000002008B50748074B0360D5
:1025100041F28733436049F63F43C360FFF756FB00
:1025200000B908BDFFF7D0FEA80000200010004051
:1025300000B589B000238DF803300122069240F2E5
:102540007B7202920493059301AB0DF1030202A981
:102550000748FEF703FA28B90648FFF7E5FD09B07A
:102560005DF804FB0448FFF7DFFDFFF7ADFE00BF99
:102570002801002070350008F434000800B583B04D
:10258000B0F5005F04D0102809D003B05DF804FB5B
:102590000E48FFF7C9FD0E48FFF7E2F9F5E70D48D1
:1025A000FFF7C2FDFFF7C4FF002301930A4B1A6C2B
:1025B00042F080521A641B6C03F080530193019B1C
:1025C000FEF73AFEFEF728FEDFE700BF943500086D
:1025D000A8000020BC3500080038024008B50948B2
:1025E000094B03604FF4E133436000238360C36011
:1025F000036183610C234361FFF741FC00B908BD0F
:10260000FFF762FEE80000200044004010B594B0DF
:1026100004462C22002109A800F000FA01230793A8
:102620004FF4A023089302230D934FF480020E92DF
:102630000F2202920393322C2DD0B42C4ED10023C2
:102640000093294A116C41F080511164126C02F020
:1026500080520092009A0193244A116841F440414B
:102660001160126802F440420192019A204A01214D
:10267000116008220F924FF4B4721092022211924C
:102680001292139204934FF4A05305934FF4805386
:10269000069305240EE008230F936423109302236E
:1026A000119312931393002304934FF480530593D3
:1026B0000693012407A8FEF771FF88B9214602A8F6
:1026C000FEF7D4FD70B9FEF781FE0A4BA3FB003084
:1026D0008009FEF7EFFB0420FEF702FC14B010BDEA
:1026E000FFF7F2FDFFF7F0FD0038024000700040F8
:1026F00040000E42D34D621008B5FDF785FF322031
:10270000FFF784FFFFF700FFFFF768FFFFF7BAFC52
:10271000FFF75EFDFFF78EFCFFF7D8FDFFF7FAFD30
:1027200040F203410D48FEF728FA20B10C48FFF7AC
:10273000FBFCFFF7C9FD0948FEF7E2F820B10948A4
:10274000FFF7F2FCFFF7C0FD002000F0E7F900F012
:102750006DF90548FFF7E8FCFEE700BF28010020FF
:10276000D8350008003600081836000808B50320E0
:10277000FEF74CFB0B4A536A43F4E02353620022FA
:1027800011466FF00B00FEF753FB002211466FF06D
:102790000A00FEF74DFB002211466FF00900FEF71C
:1027A00047FB08BD00ED00E010B588B0002401949F
:1027B000214B1A6C42F000721A641A6C02F000721B
:1027C0000192019A02941A6B42F001021A631B6B88
:1027D00003F001030293029B4FF4C05303930223BF
:1027E00004930594032306930923079303A913482D
:1027F000FEF78CFB22460F211320FEF719FB224621
:102800000F211420FEF714FB22460F211520FEF79E
:102810000FFB22460F211620FEF70AFB1320FEF7BE
:102820003BFB1420FEF738FB1520FEF735FB162086
:10283000FEF732FB08B010BD003802400000024035
:1028400010B582B000240194094B1A6C42F01002BA
:102850001A641B6C03F010030193019B3620FEF7F2
:102860001BFB22460F213620FEF7E2FA02B010BD14
:102870000038024070B588B000240194194B1A6CDE
:1028800042F400321A641A6C02F400320192019A86
:1028900002941A6B42F001021A631B6B03F00103EE
:1028A0000293029B022304930123059306940723BA
:1028B000079308AD042345F8143D0B4E29463046D6
:1028C000FEF724FB0823039329463046FEF71EFB40
:1028D0002620FEF7E1FA22460F212620FEF7A8FA6D
:1028E00008B070BD003802400000024008B5034641
:1028F0000B4A126842B10A4A106803446A4693427E
:1029000006D8074A136008BD054A06491160F2E778
:1029100000F05AF80C2303604FF0FF30F3E700BFDC
:1029200094000020700100200F49D1F8883043F452
:102930007003C1F888300D4B1A6842F001021A602A
:10294000002098601A6822F0847222F480321A60A3
:10295000074A5A601A6822F480221A60D8604FF041
:1029600000638B60704700BF00ED00E0003802405C
:1029700010300024DFF834D0002103E00C4B5B580A
:10298000435004310B480C4B42189A42F6D30B4A81
:1029900002E0002342F8043B094B9A42F9D3FFF7C7
:1029A000C3FF00F017F8FFF7A7FE704700000220F2
:1029B000CC360008000000207400002074000020C5
:1029C00070010020FEE70000014B1868704700BF4F
:1029D0001000002070B50D4E0D4CA41BA410002556
:1029E000A54209D10B4E0C4C00F0BAFCA41BA4105C
:1029F0000025A54205D170BD56F825309847013510
:102A0000EEE756F8253098470135F2E7C43600085E
:102A1000C4360008C4360008C8360008024403461D
:102A2000934200D1704703F8011BF9E738B50D4B0D
:102A30001C68A36B05467BB9182000F09BF80A4A76
:102A40000A4BA063C0E90023094B83600B238381F9
:102A500001220023C0E90423A36B00221D615A61F7
:102A600038BD00BF100000200E33CDAB34126DE630
:102A7000ECDE050038B5134B1C68A36B7BB918203E
:102A800000F078F8104A114BA063C0E90023104B06
:102A900083600B23838101220023C0E90423A16BFF
:102AA0000C480A694B690C4C504304FB0300A2FB21
:102AB00004230344541C43F10005C1E9044525F0F7
:102AC000004038BD100000200E33CDAB34126DE64F
:102AD000ECDE05002DF451582D7F954C0EB400B559
:102AE0009CB01DAB029006906FF000410948079121
:102AF0000491094953F8042B05910068019302A938
:102B000000F042F9029B00221A701CB05DF804EB41
:102B100003B07047100000200802FFFF1FB50B4BE9
:102B2000044600226946186800F012F8002805DA09
:102B30004FF0FF324FF0FF33CDE90023DDE9000114
:102B40000CB1C4E9000104B010BD00BF10000020AA
:102B500038B5074C0023054608461146236000F0AF
:102B6000F7FB431C02D1236803B12B6038BD00BFC3
:102B70006C010020024B0146186800F051B800BFFC
:102B80001000002038B50546002945D051F8043C16
:102B90000C1F002BB8BFE41800F0AAFB1F4A1368F3
:102BA000104633B9636014602846BDE8384000F031
:102BB000A0BBA3420CD921686218934204BF1A68D3
:102BC0005B68636004BF521822600460ECE7134640
:102BD0005A680AB1A242FAD919685818A0420BD112
:102BE00020680144581882421960DDD1106852688B
:102BF0005A6001441960D7E702D90C232B60D3E750
:102C0000206821188A4204BF11685268626004BFBC
:102C1000091821605C60C7E738BD00BF9C00002038
:102C200070B5CD1C25F0030508350C2D38BF0C25DB
:102C3000002D064601DBA94203D90C233360002096
:102C400070BD00F055FB214A1468214691B9204C13
:102C500023681BB9304600F017FB20602946304638
:102C600000F012FB431C24D10C233360304600F0EB
:102C700040FBE4E70B685B1B18D40B2B0FD90B60F0
:102C8000CD50CC18304600F034FB04F10B00231D6E
:102C900020F00700C31AD3D05A42E250D0E78C424A
:102CA0004B6816BF636013600C46EBE70C4649683F
:102CB000CCE7C41C24F00304A04205D0211A3046FE
:102CC00000F0E2FA0130CFD02560DBE79C00002065
:102CD000A00000202DE9F0478E689E4282460C46F7
:102CE0009046994637D88A8912F4906F31D025687A
:102CF00009696F1A6569022305EB450595FBF3F534
:102D000009F101033B449D4238BF1D46530530D5B0
:102D10002946FFF785FF064650B90C23CAF8003054
:102D2000A38943F04003A3814FF0FF30BDE8F08753
:102D30003A46216900F0B8FAA38923F4906343F07E
:102D40008003A381266165613E44ED1B2660A5607A
:102D50004E464E4500D94E4632464146206800F068
:102D6000AEFAA3689B1BA36023681E442660002064
:102D7000DCE72A4600F0BEFA06460028E2D12169C7
:102D80005046FFF7FFFEC8E72DE9F04F1D468B893F
:102D90001F069DB080460C4616460FD50B696BB9D1
:102DA0004021FFF73DFF2060206128B90C23C8F8BF
:102DB00000304FF0FF30C8E04023636100230993E7
:102DC00020238DF8293030238DF82A3003954FF0D9
:102DD000010B37463D4615F8013B0BB1252B3ED183
:102DE000B7EB060A0BD05346324621464046FFF762
:102DF00071FF013000F0A480099B534409933B7894
:102E0000002B00F09D8000234FF0FF32CDE9052319
:102E1000049307938DF853301A932F46052217F821
:102E2000011B5048FDF77CFB049BD0B9D90644BF79
:102E300020228DF853201A0744BF2B228DF85320EF
:102E40002A782A2A15D0079A2F4600200A253946C3
:102E500011F8013B303B092B4DD9B8B10FE02F469B
:102E6000B8E7404A801A0BFA00F0184304903D4638
:102E7000D3E7039A111D12680391002A01DB079220
:102E800004E0524243F00203079204933B782E2B56
:102E90000CD17B782A2B33D1039B1A1D1B6803921C
:102EA000002BB8BF4FF0FF33023705932E4D397812
:102EB00003222846FDF734FB38B14023401B03FAB8
:102EC00000F0049B034301370493397827488DF8B9
:102ED000281006227E1CFDF723FB002838D0244B47
:102EE00013BB039B073323F0070308330393099BAA
:102EF0004B4409936DE705FB023201200F46A6E71C
:102F000000230137059319460A25384610F8012B8E
:102F1000303A092A03D9002BC8D00591C6E705FB32
:102F2000012101230746F0E703AB00932246114B32
:102F300004A94046AFF30080B0F1FF3F8146D6D1EF
:102F4000A3895B063FF535AF09981DB0BDE8F08F4A
:102F500003AB00932246074B04A9404600F082F8D9
:102F6000EAE700BF883600088E360008923600086F
:102F700000000000D52C00082DE9F04791461F46BF
:102F80008A680B69DDF820809342B8BF1346C9F800
:102F9000003091F8432006460C4612B10133C9F8BF
:102FA00000302368990642BFD9F800300233C9F8CF
:102FB0000030256815F0060507D104F1190AE36809
:102FC000D9F800209B1AAB4228DC94F843302268E1
:102FD000003318BF012392062DD404F14302394671
:102FE0003046C047013020D02368E568D9F800207A
:102FF00003F00603042B08BFAD1AA36822690CBFB7
:1030000025EAE57500259342C4BF9B1AED184FF0E1
:1030100000091A344D451AD1002008E00123524618
:1030200039463046C047013003D14FF0FF30BDE88C
:10303000F0870135C3E7E1185A1C302081F84300BE
:10304000224494F8451082F843100233C5E7012367
:10305000224639463046C0470130E6D009F1010921
:10306000D8E700002DE9F04301F1430C0C46097E3E
:1030700085B06E291746064698460C9A00F0B38034
:1030800022D8632936D00AD8002900F0B9805829FF
:1030900000F0838004F1420584F8421032E0642994
:1030A00001D06929F6D120681368050603F10401EF
:1030B0002AD51B681160002B03DA2D225B4284F8AD
:1030C00043206F480A2239E0732900F09D8008D818
:1030D0006F2920D07029DDD1236843F020032360BD
:1030E00003E0752917D07829D4D1782384F84530A6
:1030F000644855E01368191D1B68116004F142050E
:1031000084F8423001238CE01B68116010F0400FFE
:1031100018BF1BB2CFE713682568181D106028067A
:1031200001D51B6802E06806FBD51B8854486F294F
:1031300014BF0A220822002184F843106568A560A4
:10314000002DC0F29580216821F004012160002B40
:103150003DD1002D40F08E806546082A0BD12368B2
:10316000DB0708D5236962689A42DEBF302305F881
:10317000013C05F1FF35ACEB05032361CDF8008080
:103180003B4603AA21463046FFF7F6FE01304DD1FB
:103190004FF0FF3005B0BDE8F083394884F84510A2
:1031A000136821681D1D1B6815600A060BD5CA0728
:1031B00044BF41F0200121601BB9226822F02002A7
:1031C00022601022B7E74D0648BF9BB2EFE7654685
:1031D000B3FBF2F102FB1133C35C05F8013D0B4672
:1031E0000029F5D1B9E7136825686169181D1060D9
:1031F00028061B6801D5196002E06A06FBD5198014
:10320000002323616546B9E71368191D11601D6825
:10321000626800212846FDF783F908B1401B606011
:1032200063682361002384F84330A7E723692A46B3
:1032300039463046C0470130AAD023689B0713D4D3
:10324000E068039B9842B8BF1846A3E701234A46AB
:1032500039463046C04701309AD00135E368039AB9
:103260009B1AAB42F2DCEBE7002504F11909F5E704
:10327000002BACD1037884F8423004F142056CE7AE
:1032800099360008AA36000838B5064C00230546D2
:1032900008462360FFF72AFB431C02D1236803B1D1
:1032A0002B6038BD6C01002010B5431E0A449142CA
:1032B00000D110BD11F8014B03F8014FF7E7884228
:1032C00010B501EB020307D8421E99420AD011F84B
:1032D000014B02F8014FF8E78342F5D98118D21A61
:1032E000D34200D110BD13F8014D01F8014DF7E7AD
:1032F00070477047F8B5074614460E4621B9114687
:10330000BDE8F840FFF78CBC22B9FFF73BFC25462F
:103310002846F8BD00F014F8A0420FD221463846E6
:10332000FFF77EFC05460028F2D031462246FFF723
:10333000BBFF31463846FFF725FCE9E73546E7E7AE
:1033400051F8043C181F002BBCBF0B58C018704725
:10335000024B58221A604FF0FF3070476C0100207A
:10336000F8B500BFF8BC08BC9E467047F8B500BF72
:08337000F8BC08BC9E46704742
:103378006C360008743600087C3600083C360008B5
:1033880048360008543600085C3600080000000083
:1033980000000000010203040607080900000000FD
:1033A8000102030443414E204572726F72204F633D
:1033B8006375727265640D0A000000004E75636CD7
:1033C800656F2057696E733A2025642C2044697311
:1033D800632057696E733A2025642C2054696573FD
:1033E8003A2025642C2047616D65204572726F7202
:1033F8003A2025640D0A0000576F6B652075702010
:1034080066726F6D205374616E646279206D6F64AB
:10341800650D0A004C6F61646564205374617473B0
:10342800202D204E75636C656F2057696E733A20A6
:1034380025642C20446973632057696E733A2025EC
:10344800642C20546965733A2025642C2047616DEB
:1034580065204572726F723A2025640D0A000000DB
:1034680046726573682073746172743B206E6F20B6
:1034780073636F72657320617661696C61626C65F4
:103488000D0A000048414C5F43414E5F496E697424
:10349800206572726F720D0A0000000048414C5F8F
:1034A80043414E5F436F6E66696746696C74657227
:1034B800206572726F720D0A0000000053656E7409
:1034C800206D65737361676520636F6E7461696EE3
:1034D800696E67204E75636C656F27732068616E2F
:1034E8006420282573290D0A0000000073656E64A6
:1034F8005F726573706F6E73652048414C5F43411E
:103508004E5F41646454784D6573736167652054F8
:1035180078206572726F720D0A0000004E75636C38
:10352800656F2073656E742067616D6520737461C3
:10353800747320746F20446973630D0A00000000DF
:103548005265636569766564206D65737361676547
:1035580020776974682067616D6520726573756C82
:10356800743A2025730D0A004E75636C656F2073DD
:10357800656E7420736C656570206D657373616723
:103588006520746F20446973630D0A005573657272
:1035980020627574746F6E20707265737365643B16
:1035A8002074696D657220737461727465640D0AA4
:1035B800000000004C69676874206C6F73743B20CE
:1035C800676F6E6520746F20736C6565700D0A00F7
:1035D80048414C5F43414E5F41637469766174654D
:1035E8004E6F74696669636174696F6E2065727283
:1035F8006F720D0A0000000048414C5F43414E5F66
:103608005374617274206572726F720D0A00000043
:103618004E75636C656F20696E697469616C697A4F
:103628006174696F6E207375636365737366756C17
:103638000D0A00004E75636C656F2077696E730024
:10364800446973632077696E7300000041207469D0
:10365800650000004572726F72206F636375727245
:1036680065640000526F636B000000005061706574
:103678007200000053636973736F72730000000077
:10368800232D302B2000686C4C0065666745464743
:1036980000303132333435363738394142434445C6
:1036A8004600303132333435363738396162636435
:0436B8006566000043
:0836BC0084CBFF7F0100000038
:0436C400F501000804
:0436C800D101000824
:1036CC000100000010000000004002400024F40043
:1036DC0014000020000000000000000000000000AA
:1036EC0000000000000000000000000000000000CE
:1036FC0000000000000000000000000000000000BE
:10370C0000000000000000000000000000000000AD
:10371C00000000000000000000000000000000009D
:10372C00000000000000000000000000000000008D
:04373C000000000089
:040000050800297551
:00000001FF
